{
  "_format": "hh-sol-artifact-1",
  "contractName": "TransferSwapper",
  "sourceName": "contracts/TransferSwapper.sol",
  "abi": [
    {
      "inputs": [
        {
          "internalType": "address",
          "name": "_nativeWrap",
          "type": "address"
        },
        {
          "internalType": "address",
          "name": "_stargateRouter",
          "type": "address"
        }
      ],
      "stateMutability": "nonpayable",
      "type": "constructor"
    },
    {
      "anonymous": false,
      "inputs": [
        {
          "indexed": true,
          "internalType": "address",
          "name": "previousOwner",
          "type": "address"
        },
        {
          "indexed": true,
          "internalType": "address",
          "name": "newOwner",
          "type": "address"
        }
      ],
      "name": "OwnershipTransferred",
      "type": "event"
    },
    {
      "inputs": [],
      "name": "bridgeSlippage",
      "outputs": [
        {
          "internalType": "uint256",
          "name": "",
          "type": "uint256"
        }
      ],
      "stateMutability": "view",
      "type": "function"
    },
    {
      "inputs": [
        {
          "internalType": "uint16",
          "name": "",
          "type": "uint16"
        }
      ],
      "name": "crossRouters",
      "outputs": [
        {
          "internalType": "address",
          "name": "",
          "type": "address"
        }
      ],
      "stateMutability": "view",
      "type": "function"
    },
    {
      "inputs": [],
      "name": "dstGasForNoSwapCall",
      "outputs": [
        {
          "internalType": "uint256",
          "name": "",
          "type": "uint256"
        }
      ],
      "stateMutability": "view",
      "type": "function"
    },
    {
      "inputs": [],
      "name": "dstGasForSwapCall",
      "outputs": [
        {
          "internalType": "uint256",
          "name": "",
          "type": "uint256"
        }
      ],
      "stateMutability": "view",
      "type": "function"
    },
    {
      "inputs": [],
      "name": "nativeWrap",
      "outputs": [
        {
          "internalType": "address",
          "name": "",
          "type": "address"
        }
      ],
      "stateMutability": "view",
      "type": "function"
    },
    {
      "inputs": [],
      "name": "owner",
      "outputs": [
        {
          "internalType": "address",
          "name": "",
          "type": "address"
        }
      ],
      "stateMutability": "view",
      "type": "function"
    },
    {
      "inputs": [
        {
          "internalType": "uint16",
          "name": "dstChainId",
          "type": "uint16"
        },
        {
          "internalType": "address",
          "name": "to",
          "type": "address"
        },
        {
          "internalType": "bool",
          "name": "swapSkip",
          "type": "bool"
        },
        {
          "internalType": "bytes",
          "name": "_dstSwapDesc",
          "type": "bytes"
        },
        {
          "internalType": "address",
          "name": "dstRouter",
          "type": "address"
        },
        {
          "internalType": "bool",
          "name": "nativeOut",
          "type": "bool"
        }
      ],
      "name": "quoteLayerZeroFee",
      "outputs": [
        {
          "internalType": "uint256",
          "name": "",
          "type": "uint256"
        },
        {
          "internalType": "uint256",
          "name": "",
          "type": "uint256"
        }
      ],
      "stateMutability": "view",
      "type": "function"
    },
    {
      "inputs": [
        {
          "internalType": "uint16",
          "name": "",
          "type": "uint16"
        }
      ],
      "name": "quotePoolIds",
      "outputs": [
        {
          "internalType": "uint256",
          "name": "",
          "type": "uint256"
        }
      ],
      "stateMutability": "view",
      "type": "function"
    },
    {
      "inputs": [
        {
          "internalType": "address",
          "name": "_token",
          "type": "address"
        }
      ],
      "name": "refundToken",
      "outputs": [],
      "stateMutability": "payable",
      "type": "function"
    },
    {
      "inputs": [],
      "name": "renounceOwnership",
      "outputs": [],
      "stateMutability": "nonpayable",
      "type": "function"
    },
    {
      "inputs": [
        {
          "internalType": "uint16",
          "name": "_chainId",
          "type": "uint16"
        },
        {
          "internalType": "address",
          "name": "_crossRouter",
          "type": "address"
        }
      ],
      "name": "setCrossChainRouter",
      "outputs": [],
      "stateMutability": "nonpayable",
      "type": "function"
    },
    {
      "inputs": [
        {
          "internalType": "uint16",
          "name": "_chainId",
          "type": "uint16"
        },
        {
          "internalType": "bytes",
          "name": "_srcAddress",
          "type": "bytes"
        },
        {
          "internalType": "uint256",
          "name": "_nonce",
          "type": "uint256"
        },
        {
          "internalType": "address",
          "name": "_token",
          "type": "address"
        },
        {
          "internalType": "uint256",
          "name": "amountLD",
          "type": "uint256"
        },
        {
          "internalType": "bytes",
          "name": "_payload",
          "type": "bytes"
        }
      ],
      "name": "sgReceive",
      "outputs": [],
      "stateMutability": "nonpayable",
      "type": "function"
    },
    {
      "inputs": [],
      "name": "stargateRouter",
      "outputs": [
        {
          "internalType": "contract IStargateRouter",
          "name": "",
          "type": "address"
        }
      ],
      "stateMutability": "view",
      "type": "function"
    },
    {
      "inputs": [
        {
          "internalType": "address",
          "name": "newOwner",
          "type": "address"
        }
      ],
      "name": "transferOwnership",
      "outputs": [],
      "stateMutability": "nonpayable",
      "type": "function"
    },
    {
      "inputs": [
        {
          "components": [
            {
              "internalType": "address payable",
              "name": "to",
              "type": "address"
            },
            {
              "internalType": "bool",
              "name": "nativeIn",
              "type": "bool"
            },
            {
              "internalType": "bool",
              "name": "nativeOut",
              "type": "bool"
            },
            {
              "internalType": "uint256",
              "name": "amountIn",
              "type": "uint256"
            },
            {
              "internalType": "address",
              "name": "tokenIn",
              "type": "address"
            },
            {
              "internalType": "address",
              "name": "tokenOut",
              "type": "address"
            },
            {
              "internalType": "bool",
              "name": "srcSkipSwap",
              "type": "bool"
            },
            {
              "internalType": "bool",
              "name": "dstSkipSwap",
              "type": "bool"
            },
            {
              "internalType": "address",
              "name": "dstTokenOut",
              "type": "address"
            },
            {
              "internalType": "address",
              "name": "router",
              "type": "address"
            },
            {
              "internalType": "address",
              "name": "dstRouter",
              "type": "address"
            },
            {
              "internalType": "uint16",
              "name": "srcChainId",
              "type": "uint16"
            },
            {
              "internalType": "uint16",
              "name": "dstChainId",
              "type": "uint16"
            }
          ],
          "internalType": "struct TransferSwapper.TransferDescription",
          "name": "_transferDesc",
          "type": "tuple"
        },
        {
          "internalType": "bytes",
          "name": "_srcSwapDesc",
          "type": "bytes"
        },
        {
          "internalType": "bytes",
          "name": "_dstSwapDesc",
          "type": "bytes"
        }
      ],
      "name": "transferWithSwap",
      "outputs": [],
      "stateMutability": "payable",
      "type": "function"
    }
  ],
  "bytecode": "0x60806040523480156200001157600080fd5b5060405162002ef838038062002ef8833981810160405281019062000037919062000369565b620000576200004b6200023360201b60201c565b6200023b60201b60201c565b6001808190555081600260006101000a81548173ffffffffffffffffffffffffffffffffffffffff021916908373ffffffffffffffffffffffffffffffffffffffff16021790555080600660006101000a81548173ffffffffffffffffffffffffffffffffffffffff021916908373ffffffffffffffffffffffffffffffffffffffff160217905550606460038190555062057e4060048190555062013880600581905550600160076000600161ffff16815260200190815260200160002081905550600260076000600261ffff16815260200190815260200160002081905550600160076000600661ffff16815260200190815260200160002081905550600160076000600961ffff16815260200190815260200160002081905550600160076000600a61ffff16815260200190815260200160002081905550600160076000600b61ffff16815260200190815260200160002081905550600160076000600c61ffff1681526020019081526020016000208190555060016007600061271161ffff1681526020019081526020016000208190555060026007600061271261ffff1681526020019081526020016000208190555060016007600061271961ffff168152602001908152602001600020819055505050620003b0565b600033905090565b60008060009054906101000a900473ffffffffffffffffffffffffffffffffffffffff169050816000806101000a81548173ffffffffffffffffffffffffffffffffffffffff021916908373ffffffffffffffffffffffffffffffffffffffff1602179055508173ffffffffffffffffffffffffffffffffffffffff168173ffffffffffffffffffffffffffffffffffffffff167f8be0079c531659141344cd1fd0a4f28419497f9722a3daafe3b4186f6b6457e060405160405180910390a35050565b600080fd5b600073ffffffffffffffffffffffffffffffffffffffff82169050919050565b6000620003318262000304565b9050919050565b620003438162000324565b81146200034f57600080fd5b50565b600081519050620003638162000338565b92915050565b60008060408385031215620003835762000382620002ff565b5b6000620003938582860162000352565b9250506020620003a68582860162000352565b9150509250929050565b612b3880620003c06000396000f3fe6080604052600436106100e85760003560e01c80639b90167e1161008a578063ab8236f311610059578063ab8236f3146102b7578063b7b95fce146102e0578063c22b74191461031d578063f2fde38b14610348576100e8565b80639b90167e1461022b578063a83f192a14610254578063a842375e14610270578063a9e56f3c1461028c576100e8565b8063616d2964116100c6578063616d296414610193578063715018a6146101be57806383af5550146101d55780638da5cb5b14610200576100e8565b80632b51d7eb146100ed578063457bfa2f1461012a578063480e2e1c14610155575b600080fd5b3480156100f957600080fd5b50610114600480360381019061010f919061165a565b610371565b60405161012191906116a0565b60405180910390f35b34801561013657600080fd5b5061013f610389565b60405161014c91906116fc565b60405180910390f35b34801561016157600080fd5b5061017c600480360381019061017791906117e0565b6103af565b60405161018a92919061188f565b60405180910390f35b34801561019f57600080fd5b506101a861051c565b6040516101b591906116a0565b60405180910390f35b3480156101ca57600080fd5b506101d3610522565b005b3480156101e157600080fd5b506101ea6105aa565b6040516101f791906116a0565b60405180910390f35b34801561020c57600080fd5b506102156105b0565b60405161022291906116fc565b60405180910390f35b34801561023757600080fd5b50610252600480360381019061024d91906118b8565b6105d9565b005b61026e6004803603810190610269919061191d565b610723565b005b61028a600480360381019061028591906119b5565b61078a565b005b34801561029857600080fd5b506102a16108a7565b6040516102ae9190611a41565b60405180910390f35b3480156102c357600080fd5b506102de60048036038101906102d99190611bc9565b6108cd565b005b3480156102ec57600080fd5b506103076004803603810190610302919061165a565b610a35565b60405161031491906116fc565b60405180910390f35b34801561032957600080fd5b50610332610a68565b60405161033f91906116a0565b60405180910390f35b34801561035457600080fd5b5061036f600480360381019061036a91906119b5565b610a6e565b005b60076020528060005260406000206000915090505481565b600260009054906101000a900473ffffffffffffffffffffffffffffffffffffffff1681565b6000806000886040516020016103c59190611cd6565b60405160208183030381529060405290506000878787876040516020016103ef9493929190611d69565b604051602081830303815290604052905060008961040f57600454610413565b6005545b9050600660009054906101000a900473ffffffffffffffffffffffffffffffffffffffff1673ffffffffffffffffffffffffffffffffffffffff16630a5123698d600186866040518060600160405280888152602001600081526020016040518060400160405280600281526020017f30780000000000000000000000000000000000000000000000000000000000008152508152506040518663ffffffff1660e01b81526004016104c9959493929190611f2c565b6040805180830381865afa1580156104e5573d6000803e3d6000fd5b505050506040513d601f19601f820116820180604052508101906105099190611fa9565b9450945050505097509795505050505050565b60055481565b61052a610b66565b73ffffffffffffffffffffffffffffffffffffffff166105486105b0565b73ffffffffffffffffffffffffffffffffffffffff161461059e576040517f08c379a000000000000000000000000000000000000000000000000000000000815260040161059590612046565b60405180910390fd5b6105a86000610b6e565b565b60035481565b60008060009054906101000a900473ffffffffffffffffffffffffffffffffffffffff16905090565b6105e1610b66565b73ffffffffffffffffffffffffffffffffffffffff166105ff6105b0565b73ffffffffffffffffffffffffffffffffffffffff1614610655576040517f08c379a000000000000000000000000000000000000000000000000000000000815260040161064c90612046565b60405180910390fd5b600073ffffffffffffffffffffffffffffffffffffffff168173ffffffffffffffffffffffffffffffffffffffff1614156106c5576040517f08c379a00000000000000000000000000000000000000000000000000000000081526004016106bc906120b2565b60405180910390fd5b80600860008461ffff1661ffff16815260200190815260200160002060006101000a81548173ffffffffffffffffffffffffffffffffffffffff021916908373ffffffffffffffffffffffffffffffffffffffff1602179055505050565b60026001541415610769576040517f08c379a00000000000000000000000000000000000000000000000000000000081526004016107609061211e565b60405180910390fd5b600260018190555061077c858383610c32565b600180819055505050505050565b60008173ffffffffffffffffffffffffffffffffffffffff166370a08231306040518263ffffffff1660e01b81526004016107c591906116fc565b602060405180830381865afa1580156107e2573d6000803e3d6000fd5b505050506040513d601f19601f82011682018060405250810190610806919061213e565b90506000811061084b576040517f08c379a0000000000000000000000000000000000000000000000000000000008152600401610842906121b7565b60405180910390fd5b61087630828473ffffffffffffffffffffffffffffffffffffffff16610f439092919063ffffffff16565b6108a33033838573ffffffffffffffffffffffffffffffffffffffff16611055909392919063ffffffff16565b5050565b600660009054906101000a900473ffffffffffffffffffffffffffffffffffffffff1681565b600660009054906101000a900473ffffffffffffffffffffffffffffffffffffffff1673ffffffffffffffffffffffffffffffffffffffff163373ffffffffffffffffffffffffffffffffffffffff161461095d576040517f08c379a000000000000000000000000000000000000000000000000000000000815260040161095490612249565b60405180910390fd5b600080600083806020019051810190610976919061232c565b9250925092506109878630876110de565b6127118961ffff1614156109db576109d63073221e25ad7373fbaf33c7078b8666816586222a09878973ffffffffffffffffffffffffffffffffffffffff16611055909392919063ffffffff16565b610a2a565b6127128961ffff1614156109ee57610a29565b6040517f08c379a0000000000000000000000000000000000000000000000000000000008152600401610a20906123e7565b60405180910390fd5b5b505050505050505050565b60086020528060005260406000206000915054906101000a900473ffffffffffffffffffffffffffffffffffffffff1681565b60045481565b610a76610b66565b73ffffffffffffffffffffffffffffffffffffffff16610a946105b0565b73ffffffffffffffffffffffffffffffffffffffff1614610aea576040517f08c379a0000000000000000000000000000000000000000000000000000000008152600401610ae190612046565b60405180910390fd5b600073ffffffffffffffffffffffffffffffffffffffff168173ffffffffffffffffffffffffffffffffffffffff161415610b5a576040517f08c379a0000000000000000000000000000000000000000000000000000000008152600401610b5190612479565b60405180910390fd5b610b6381610b6e565b50565b600033905090565b60008060009054906101000a900473ffffffffffffffffffffffffffffffffffffffff169050816000806101000a81548173ffffffffffffffffffffffffffffffffffffffff021916908373ffffffffffffffffffffffffffffffffffffffff1602179055508173ffffffffffffffffffffffffffffffffffffffff168173ffffffffffffffffffffffffffffffffffffffff167f8be0079c531659141344cd1fd0a4f28419497f9722a3daafe3b4186f6b6457e060405160405180910390a35050565b6000836060013590506000349050600085610180016020810190610c56919061165a565b9050600086610160016020810190610c6e919061165a565b90506000868689610140016020810190610c8891906119b5565b8a6040016020810190610c9b9190612499565b604051602001610cae9493929190611d69565b6040516020818303038152906040529050610cdd886080016020810190610cd591906119b5565b333088611214565b6000600860008561ffff1661ffff16815260200190815260200160002060009054906101000a900473ffffffffffffffffffffffffffffffffffffffff16604051602001610d2b9190611cd6565b60405160208183030381529060405290506000610d7b612710610d6d610d5e60035461271061134d90919063ffffffff16565b8a61136390919063ffffffff16565b61137990919063ffffffff16565b905060008073ffffffffffffffffffffffffffffffffffffffff168b610100016020810190610daa91906119b5565b73ffffffffffffffffffffffffffffffffffffffff1614610dcd57600454610dd1565b6005545b9050610e128b6080016020810190610de991906119b5565b600660009054906101000a900473ffffffffffffffffffffffffffffffffffffffff168a6110de565b600660009054906101000a900473ffffffffffffffffffffffffffffffffffffffff1673ffffffffffffffffffffffffffffffffffffffff16639fbf10fc8888600760008a61ffff1661ffff16815260200190815260200160002054600760008c61ffff1661ffff16815260200190815260200160002054338e8960405180606001604052808b8152602001600081526020016040518060400160405280600281526020017f30780000000000000000000000000000000000000000000000000000000000008152508152508c8e6040518b63ffffffff1660e01b8152600401610f04999897969594939291906124d5565b6000604051808303818588803b158015610f1d57600080fd5b505af1158015610f31573d6000803e3d6000fd5b50505050505050505050505050505050565b6000818473ffffffffffffffffffffffffffffffffffffffff1663dd62ed3e30866040518363ffffffff1660e01b8152600401610f81929190612577565b602060405180830381865afa158015610f9e573d6000803e3d6000fd5b505050506040513d601f19601f82011682018060405250810190610fc2919061213e565b610fcc91906125cf565b905061104f8463095ea7b360e01b8584604051602401610fed929190612625565b604051602081830303815290604052907bffffffffffffffffffffffffffffffffffffffffffffffffffffffff19166020820180517bffffffffffffffffffffffffffffffffffffffffffffffffffffffff838183161783525050505061138f565b50505050565b6110d8846323b872dd60e01b8585856040516024016110769392919061264e565b604051602081830303815290604052907bffffffffffffffffffffffffffffffffffffffffffffffffffffffff19166020820180517bffffffffffffffffffffffffffffffffffffffffffffffffffffffff838183161783525050505061138f565b50505050565b6000808473ffffffffffffffffffffffffffffffffffffffff1663095ea7b38585604051602401611110929190612625565b6040516020818303038152906040529060e01b6020820180517bffffffffffffffffffffffffffffffffffffffffffffffffffffffff838183161783525050505060405161115e91906126b6565b6000604051808303816000865af19150503d806000811461119b576040519150601f19603f3d011682016040523d82523d6000602084013e6111a0565b606091505b50915091508180156111ce57506000815114806111cd5750808060200190518101906111cc91906126cd565b5b5b61120d576040517f08c379a00000000000000000000000000000000000000000000000000000000081526004016112049061276c565b60405180910390fd5b5050505050565b6000808573ffffffffffffffffffffffffffffffffffffffff166323b872dd8686866040516024016112489392919061264e565b6040516020818303038152906040529060e01b6020820180517bffffffffffffffffffffffffffffffffffffffffffffffffffffffff838183161783525050505060405161129691906126b6565b6000604051808303816000865af19150503d80600081146112d3576040519150601f19603f3d011682016040523d82523d6000602084013e6112d8565b606091505b5091509150818015611306575060008151148061130557508080602001905181019061130491906126cd565b5b5b611345576040517f08c379a000000000000000000000000000000000000000000000000000000000815260040161133c906127fe565b60405180910390fd5b505050505050565b6000818361135b919061281e565b905092915050565b600081836113719190612852565b905092915050565b6000818361138791906128db565b905092915050565b60006113f1826040518060400160405280602081526020017f5361666545524332303a206c6f772d6c6576656c2063616c6c206661696c65648152508573ffffffffffffffffffffffffffffffffffffffff166114569092919063ffffffff16565b9050600081511115611451578080602001905181019061141191906126cd565b611450576040517f08c379a00000000000000000000000000000000000000000000000000000000081526004016114479061297e565b60405180910390fd5b5b505050565b6060611465848460008561146e565b90509392505050565b6060824710156114b3576040517f08c379a00000000000000000000000000000000000000000000000000000000081526004016114aa90612a10565b60405180910390fd5b6114bc85611582565b6114fb576040517f08c379a00000000000000000000000000000000000000000000000000000000081526004016114f290612a7c565b60405180910390fd5b6000808673ffffffffffffffffffffffffffffffffffffffff16858760405161152491906126b6565b60006040518083038185875af1925050503d8060008114611561576040519150601f19603f3d011682016040523d82523d6000602084013e611566565b606091505b50915091506115768282866115a5565b92505050949350505050565b6000808273ffffffffffffffffffffffffffffffffffffffff163b119050919050565b606083156115b557829050611605565b6000835111156115c85782518084602001fd5b816040517f08c379a00000000000000000000000000000000000000000000000000000000081526004016115fc9190612ae0565b60405180910390fd5b9392505050565b6000604051905090565b600080fd5b600080fd5b600061ffff82169050919050565b61163781611620565b811461164257600080fd5b50565b6000813590506116548161162e565b92915050565b6000602082840312156116705761166f611616565b5b600061167e84828501611645565b91505092915050565b6000819050919050565b61169a81611687565b82525050565b60006020820190506116b56000830184611691565b92915050565b600073ffffffffffffffffffffffffffffffffffffffff82169050919050565b60006116e6826116bb565b9050919050565b6116f6816116db565b82525050565b600060208201905061171160008301846116ed565b92915050565b611720816116db565b811461172b57600080fd5b50565b60008135905061173d81611717565b92915050565b60008115159050919050565b61175881611743565b811461176357600080fd5b50565b6000813590506117758161174f565b92915050565b600080fd5b600080fd5b600080fd5b60008083601f8401126117a05761179f61177b565b5b8235905067ffffffffffffffff8111156117bd576117bc611780565b5b6020830191508360018202830111156117d9576117d8611785565b5b9250929050565b600080600080600080600060c0888a0312156117ff576117fe611616565b5b600061180d8a828b01611645565b975050602061181e8a828b0161172e565b965050604061182f8a828b01611766565b955050606088013567ffffffffffffffff8111156118505761184f61161b565b5b61185c8a828b0161178a565b9450945050608061186f8a828b0161172e565b92505060a06118808a828b01611766565b91505092959891949750929550565b60006040820190506118a46000830185611691565b6118b16020830184611691565b9392505050565b600080604083850312156118cf576118ce611616565b5b60006118dd85828601611645565b92505060206118ee8582860161172e565b9150509250929050565b600080fd5b60006101a08284031215611914576119136118f8565b5b81905092915050565b60008060008060006101e0868803121561193a57611939611616565b5b6000611948888289016118fd565b9550506101a086013567ffffffffffffffff81111561196a5761196961161b565b5b6119768882890161178a565b94509450506101c086013567ffffffffffffffff81111561199a5761199961161b565b5b6119a68882890161178a565b92509250509295509295909350565b6000602082840312156119cb576119ca611616565b5b60006119d98482850161172e565b91505092915050565b6000819050919050565b6000611a07611a026119fd846116bb565b6119e2565b6116bb565b9050919050565b6000611a19826119ec565b9050919050565b6000611a2b82611a0e565b9050919050565b611a3b81611a20565b82525050565b6000602082019050611a566000830184611a32565b92915050565b600080fd5b6000601f19601f8301169050919050565b7f4e487b7100000000000000000000000000000000000000000000000000000000600052604160045260246000fd5b611aaa82611a61565b810181811067ffffffffffffffff82111715611ac957611ac8611a72565b5b80604052505050565b6000611adc61160c565b9050611ae88282611aa1565b919050565b600067ffffffffffffffff821115611b0857611b07611a72565b5b611b1182611a61565b9050602081019050919050565b82818337600083830152505050565b6000611b40611b3b84611aed565b611ad2565b905082815260208101848484011115611b5c57611b5b611a5c565b5b611b67848285611b1e565b509392505050565b600082601f830112611b8457611b8361177b565b5b8135611b94848260208601611b2d565b91505092915050565b611ba681611687565b8114611bb157600080fd5b50565b600081359050611bc381611b9d565b92915050565b60008060008060008060c08789031215611be657611be5611616565b5b6000611bf489828a01611645565b965050602087013567ffffffffffffffff811115611c1557611c1461161b565b5b611c2189828a01611b6f565b9550506040611c3289828a01611bb4565b9450506060611c4389828a0161172e565b9350506080611c5489828a01611bb4565b92505060a087013567ffffffffffffffff811115611c7557611c7461161b565b5b611c8189828a01611b6f565b9150509295509295509295565b60008160601b9050919050565b6000611ca682611c8e565b9050919050565b6000611cb882611c9b565b9050919050565b611cd0611ccb826116db565b611cad565b82525050565b6000611ce28284611cbf565b60148201915081905092915050565b600081905092915050565b6000611d088385611cf1565b9350611d15838584611b1e565b82840190509392505050565b60008160f81b9050919050565b6000611d3982611d21565b9050919050565b6000611d4b82611d2e565b9050919050565b611d63611d5e82611743565b611d40565b82525050565b6000611d76828688611cfc565b9150611d828285611cbf565b601482019150611d928284611d52565b60018201915081905095945050505050565b611dad81611620565b82525050565b6000819050919050565b600060ff82169050919050565b6000611de5611de0611ddb84611db3565b6119e2565b611dbd565b9050919050565b611df581611dca565b82525050565b600081519050919050565b600082825260208201905092915050565b60005b83811015611e35578082015181840152602081019050611e1a565b83811115611e44576000848401525b50505050565b6000611e5582611dfb565b611e5f8185611e06565b9350611e6f818560208601611e17565b611e7881611a61565b840191505092915050565b611e8c81611687565b82525050565b600082825260208201905092915050565b6000611eae82611dfb565b611eb88185611e92565b9350611ec8818560208601611e17565b611ed181611a61565b840191505092915050565b6000606083016000830151611ef46000860182611e83565b506020830151611f076020860182611e83565b5060408301518482036040860152611f1f8282611ea3565b9150508091505092915050565b600060a082019050611f416000830188611da4565b611f4e6020830187611dec565b8181036040830152611f608186611e4a565b90508181036060830152611f748185611e4a565b90508181036080830152611f888184611edc565b90509695505050505050565b600081519050611fa381611b9d565b92915050565b60008060408385031215611fc057611fbf611616565b5b6000611fce85828601611f94565b9250506020611fdf85828601611f94565b9150509250929050565b600082825260208201905092915050565b7f4f776e61626c653a2063616c6c6572206973206e6f7420746865206f776e6572600082015250565b6000612030602083611fe9565b915061203b82611ffa565b602082019050919050565b6000602082019050818103600083015261205f81612023565b9050919050565b7f43726f7373436861696e526f757465723a202163726f7373526f757465720000600082015250565b600061209c601e83611fe9565b91506120a782612066565b602082019050919050565b600060208201905081810360008301526120cb8161208f565b9050919050565b7f5265656e7472616e637947756172643a207265656e7472616e742063616c6c00600082015250565b6000612108601f83611fe9565b9150612113826120d2565b602082019050919050565b60006020820190508181036000830152612137816120fb565b9050919050565b60006020828403121561215457612153611616565b5b600061216284828501611f94565b91505092915050565b7f6e6f20726566756e6461626c6520746f6b656e00000000000000000000000000600082015250565b60006121a1601383611fe9565b91506121ac8261216b565b602082019050919050565b600060208201905081810360008301526121d081612194565b9050919050565b7f6f6e6c7920737461726761746520726f757465722063616e2063616c6c20736760008201527f5265636569766521000000000000000000000000000000000000000000000000602082015250565b6000612233602883611fe9565b915061223e826121d7565b604082019050919050565b6000602082019050818103600083015261226281612226565b9050919050565b600061227c61227784611aed565b611ad2565b90508281526020810184848401111561229857612297611a5c565b5b6122a3848285611e17565b509392505050565b600082601f8301126122c0576122bf61177b565b5b81516122d0848260208601612269565b91505092915050565b60006122e4826116bb565b9050919050565b6122f4816122d9565b81146122ff57600080fd5b50565b600081519050612311816122eb565b92915050565b6000815190506123268161174f565b92915050565b60008060006060848603121561234557612344611616565b5b600084015167ffffffffffffffff8111156123635761236261161b565b5b61236f868287016122ab565b935050602061238086828701612302565b925050604061239186828701612317565b9150509250925092565b7f756e737570706f7274656420636861696e000000000000000000000000000000600082015250565b60006123d1601183611fe9565b91506123dc8261239b565b602082019050919050565b60006020820190508181036000830152612400816123c4565b9050919050565b7f4f776e61626c653a206e6577206f776e657220697320746865207a65726f206160008201527f6464726573730000000000000000000000000000000000000000000000000000602082015250565b6000612463602683611fe9565b915061246e82612407565b604082019050919050565b6000602082019050818103600083015261249281612456565b9050919050565b6000602082840312156124af576124ae611616565b5b60006124bd84828501611766565b91505092915050565b6124cf816122d9565b82525050565b6000610120820190506124eb600083018c611da4565b6124f8602083018b611691565b612505604083018a611691565b61251260608301896124c6565b61251f6080830188611691565b61252c60a0830187611691565b81810360c083015261253e8186611edc565b905081810360e08301526125528185611e4a565b90508181036101008301526125678184611e4a565b90509a9950505050505050505050565b600060408201905061258c60008301856116ed565b61259960208301846116ed565b9392505050565b7f4e487b7100000000000000000000000000000000000000000000000000000000600052601160045260246000fd5b60006125da82611687565b91506125e583611687565b9250827fffffffffffffffffffffffffffffffffffffffffffffffffffffffffffffffff0382111561261a576126196125a0565b5b828201905092915050565b600060408201905061263a60008301856116ed565b6126476020830184611691565b9392505050565b600060608201905061266360008301866116ed565b61267060208301856116ed565b61267d6040830184611691565b949350505050565b600061269082611dfb565b61269a8185611cf1565b93506126aa818560208601611e17565b80840191505092915050565b60006126c28284612685565b915081905092915050565b6000602082840312156126e3576126e2611616565b5b60006126f184828501612317565b91505092915050565b7f5472616e7366657248656c7065723a3a73616665417070726f76653a2061707060008201527f726f7665206661696c6564000000000000000000000000000000000000000000602082015250565b6000612756602b83611fe9565b9150612761826126fa565b604082019050919050565b6000602082019050818103600083015261278581612749565b9050919050565b7f5472616e7366657248656c7065723a3a7472616e7366657246726f6d3a20747260008201527f616e7366657246726f6d206661696c6564000000000000000000000000000000602082015250565b60006127e8603183611fe9565b91506127f38261278c565b604082019050919050565b60006020820190508181036000830152612817816127db565b9050919050565b600061282982611687565b915061283483611687565b925082821015612847576128466125a0565b5b828203905092915050565b600061285d82611687565b915061286883611687565b9250817fffffffffffffffffffffffffffffffffffffffffffffffffffffffffffffffff04831182151516156128a1576128a06125a0565b5b828202905092915050565b7f4e487b7100000000000000000000000000000000000000000000000000000000600052601260045260246000fd5b60006128e682611687565b91506128f183611687565b925082612901576129006128ac565b5b828204905092915050565b7f5361666545524332303a204552433230206f7065726174696f6e20646964206e60008201527f6f74207375636365656400000000000000000000000000000000000000000000602082015250565b6000612968602a83611fe9565b91506129738261290c565b604082019050919050565b600060208201905081810360008301526129978161295b565b9050919050565b7f416464726573733a20696e73756666696369656e742062616c616e636520666f60008201527f722063616c6c0000000000000000000000000000000000000000000000000000602082015250565b60006129fa602683611fe9565b9150612a058261299e565b604082019050919050565b60006020820190508181036000830152612a29816129ed565b9050919050565b7f416464726573733a2063616c6c20746f206e6f6e2d636f6e7472616374000000600082015250565b6000612a66601d83611fe9565b9150612a7182612a30565b602082019050919050565b60006020820190508181036000830152612a9581612a59565b9050919050565b600081519050919050565b6000612ab282612a9c565b612abc8185611fe9565b9350612acc818560208601611e17565b612ad581611a61565b840191505092915050565b60006020820190508181036000830152612afa8184612aa7565b90509291505056fea2646970667358221220912206c4301a6939f14d44496ad179d9c51ece00481579241f6f5601fb6aea9764736f6c634300080c0033",
  "linkReferences": {},
  "deployedLinkReferences": {}
}