{
  "_format": "hh-sol-artifact-1",
  "contractName": "TransferSwapper",
  "sourceName": "contracts/TransferSwapper.sol",
  "abi": [
    {
      "inputs": [
        {
          "internalType": "address",
          "name": "_nativeWrap",
          "type": "address"
        },
        {
          "internalType": "address",
          "name": "_stargateRouter",
          "type": "address"
        }
      ],
      "stateMutability": "nonpayable",
      "type": "constructor"
    },
    {
      "anonymous": false,
      "inputs": [
        {
          "indexed": true,
          "internalType": "address",
          "name": "previousOwner",
          "type": "address"
        },
        {
          "indexed": true,
          "internalType": "address",
          "name": "newOwner",
          "type": "address"
        }
      ],
      "name": "OwnershipTransferred",
      "type": "event"
    },
    {
      "inputs": [],
      "name": "bridgeSlippage",
      "outputs": [
        {
          "internalType": "uint256",
          "name": "",
          "type": "uint256"
        }
      ],
      "stateMutability": "view",
      "type": "function"
    },
    {
      "inputs": [
        {
          "internalType": "uint16",
          "name": "",
          "type": "uint16"
        }
      ],
      "name": "crossRouters",
      "outputs": [
        {
          "internalType": "address",
          "name": "",
          "type": "address"
        }
      ],
      "stateMutability": "view",
      "type": "function"
    },
    {
      "inputs": [],
      "name": "dstGasForNoSwapCall",
      "outputs": [
        {
          "internalType": "uint256",
          "name": "",
          "type": "uint256"
        }
      ],
      "stateMutability": "view",
      "type": "function"
    },
    {
      "inputs": [],
      "name": "dstGasForSwapCall",
      "outputs": [
        {
          "internalType": "uint256",
          "name": "",
          "type": "uint256"
        }
      ],
      "stateMutability": "view",
      "type": "function"
    },
    {
      "inputs": [],
      "name": "nativeWrap",
      "outputs": [
        {
          "internalType": "address",
          "name": "",
          "type": "address"
        }
      ],
      "stateMutability": "view",
      "type": "function"
    },
    {
      "inputs": [],
      "name": "owner",
      "outputs": [
        {
          "internalType": "address",
          "name": "",
          "type": "address"
        }
      ],
      "stateMutability": "view",
      "type": "function"
    },
    {
      "inputs": [
        {
          "internalType": "uint16",
          "name": "dstChainId",
          "type": "uint16"
        },
        {
          "internalType": "address",
          "name": "to",
          "type": "address"
        },
        {
          "internalType": "bool",
          "name": "swapSkip",
          "type": "bool"
        },
        {
          "internalType": "bytes",
          "name": "_dstSwapDesc",
          "type": "bytes"
        },
        {
          "internalType": "address",
          "name": "dstRouter",
          "type": "address"
        },
        {
          "internalType": "bool",
          "name": "nativeOut",
          "type": "bool"
        }
      ],
      "name": "quoteLayerZeroFee",
      "outputs": [
        {
          "internalType": "uint256",
          "name": "",
          "type": "uint256"
        },
        {
          "internalType": "uint256",
          "name": "",
          "type": "uint256"
        }
      ],
      "stateMutability": "view",
      "type": "function"
    },
    {
      "inputs": [
        {
          "internalType": "uint16",
          "name": "",
          "type": "uint16"
        }
      ],
      "name": "quotePoolIds",
      "outputs": [
        {
          "internalType": "uint256",
          "name": "",
          "type": "uint256"
        }
      ],
      "stateMutability": "view",
      "type": "function"
    },
    {
      "inputs": [
        {
          "internalType": "address",
          "name": "_token",
          "type": "address"
        }
      ],
      "name": "refundToken",
      "outputs": [],
      "stateMutability": "payable",
      "type": "function"
    },
    {
      "inputs": [],
      "name": "renounceOwnership",
      "outputs": [],
      "stateMutability": "nonpayable",
      "type": "function"
    },
    {
      "inputs": [
        {
          "internalType": "uint16",
          "name": "_chainId",
          "type": "uint16"
        },
        {
          "internalType": "address",
          "name": "_crossRouter",
          "type": "address"
        }
      ],
      "name": "setCrossChainRouter",
      "outputs": [],
      "stateMutability": "nonpayable",
      "type": "function"
    },
    {
      "inputs": [
        {
          "internalType": "uint16",
          "name": "_chainId",
          "type": "uint16"
        },
        {
          "internalType": "bytes",
          "name": "_srcAddress",
          "type": "bytes"
        },
        {
          "internalType": "uint256",
          "name": "_nonce",
          "type": "uint256"
        },
        {
          "internalType": "address",
          "name": "_token",
          "type": "address"
        },
        {
          "internalType": "uint256",
          "name": "amountLD",
          "type": "uint256"
        },
        {
          "internalType": "bytes",
          "name": "_payload",
          "type": "bytes"
        }
      ],
      "name": "sgReceive",
      "outputs": [],
      "stateMutability": "nonpayable",
      "type": "function"
    },
    {
      "inputs": [],
      "name": "stargateRouter",
      "outputs": [
        {
          "internalType": "contract IStargateRouter",
          "name": "",
          "type": "address"
        }
      ],
      "stateMutability": "view",
      "type": "function"
    },
    {
      "inputs": [
        {
          "internalType": "address",
          "name": "newOwner",
          "type": "address"
        }
      ],
      "name": "transferOwnership",
      "outputs": [],
      "stateMutability": "nonpayable",
      "type": "function"
    },
    {
      "inputs": [
        {
          "components": [
            {
              "internalType": "address payable",
              "name": "to",
              "type": "address"
            },
            {
              "internalType": "bool",
              "name": "nativeIn",
              "type": "bool"
            },
            {
              "internalType": "bool",
              "name": "nativeOut",
              "type": "bool"
            },
            {
              "internalType": "uint256",
              "name": "amountIn",
              "type": "uint256"
            },
            {
              "internalType": "address",
              "name": "tokenIn",
              "type": "address"
            },
            {
              "internalType": "address",
              "name": "tokenOut",
              "type": "address"
            },
            {
              "internalType": "bool",
              "name": "srcSkipSwap",
              "type": "bool"
            },
            {
              "internalType": "bool",
              "name": "dstSkipSwap",
              "type": "bool"
            },
            {
              "internalType": "address",
              "name": "dstTokenOut",
              "type": "address"
            },
            {
              "internalType": "address",
              "name": "router",
              "type": "address"
            },
            {
              "internalType": "address",
              "name": "dstRouter",
              "type": "address"
            },
            {
              "internalType": "uint16",
              "name": "srcChainId",
              "type": "uint16"
            },
            {
              "internalType": "uint16",
              "name": "dstChainId",
              "type": "uint16"
            }
          ],
          "internalType": "struct TransferSwapper.TransferDescription",
          "name": "_transferDesc",
          "type": "tuple"
        },
        {
          "internalType": "bytes",
          "name": "_srcSwapDesc",
          "type": "bytes"
        },
        {
          "internalType": "bytes",
          "name": "_dstSwapDesc",
          "type": "bytes"
        }
      ],
      "name": "transferWithSwap",
      "outputs": [],
      "stateMutability": "payable",
      "type": "function"
    }
  ],
  "bytecode": "0x60806040523480156200001157600080fd5b50604051620042c6380380620042c6833981810160405281019062000037919062000369565b620000576200004b6200023360201b60201c565b6200023b60201b60201c565b6001808190555081600260006101000a81548173ffffffffffffffffffffffffffffffffffffffff021916908373ffffffffffffffffffffffffffffffffffffffff16021790555080600660006101000a81548173ffffffffffffffffffffffffffffffffffffffff021916908373ffffffffffffffffffffffffffffffffffffffff160217905550606460038190555062057e4060048190555062013880600581905550600160076000600161ffff16815260200190815260200160002081905550600260076000600261ffff16815260200190815260200160002081905550600160076000600661ffff16815260200190815260200160002081905550600160076000600961ffff16815260200190815260200160002081905550600160076000600a61ffff16815260200190815260200160002081905550600160076000600b61ffff16815260200190815260200160002081905550600160076000600c61ffff1681526020019081526020016000208190555060016007600061271161ffff1681526020019081526020016000208190555060026007600061271261ffff1681526020019081526020016000208190555060016007600061271961ffff168152602001908152602001600020819055505050620003b0565b600033905090565b60008060009054906101000a900473ffffffffffffffffffffffffffffffffffffffff169050816000806101000a81548173ffffffffffffffffffffffffffffffffffffffff021916908373ffffffffffffffffffffffffffffffffffffffff1602179055508173ffffffffffffffffffffffffffffffffffffffff168173ffffffffffffffffffffffffffffffffffffffff167f8be0079c531659141344cd1fd0a4f28419497f9722a3daafe3b4186f6b6457e060405160405180910390a35050565b600080fd5b600073ffffffffffffffffffffffffffffffffffffffff82169050919050565b6000620003318262000304565b9050919050565b620003438162000324565b81146200034f57600080fd5b50565b600081519050620003638162000338565b92915050565b60008060408385031215620003835762000382620002ff565b5b6000620003938582860162000352565b9250506020620003a68582860162000352565b9150509250929050565b613f0680620003c06000396000f3fe6080604052600436106100e85760003560e01c80639b90167e1161008a578063ab8236f311610059578063ab8236f3146102b7578063b7b95fce146102e0578063c22b74191461031d578063f2fde38b14610348576100e8565b80639b90167e1461022b578063a83f192a14610254578063a842375e14610270578063a9e56f3c1461028c576100e8565b8063616d2964116100c6578063616d296414610193578063715018a6146101be57806383af5550146101d55780638da5cb5b14610200576100e8565b80632b51d7eb146100ed578063457bfa2f1461012a578063480e2e1c14610155575b600080fd5b3480156100f957600080fd5b50610114600480360381019061010f919061233c565b610371565b6040516101219190612382565b60405180910390f35b34801561013657600080fd5b5061013f610389565b60405161014c91906123de565b60405180910390f35b34801561016157600080fd5b5061017c600480360381019061017791906124c2565b6103af565b60405161018a929190612571565b60405180910390f35b34801561019f57600080fd5b506101a861051c565b6040516101b59190612382565b60405180910390f35b3480156101ca57600080fd5b506101d3610522565b005b3480156101e157600080fd5b506101ea6105aa565b6040516101f79190612382565b60405180910390f35b34801561020c57600080fd5b506102156105b0565b60405161022291906123de565b60405180910390f35b34801561023757600080fd5b50610252600480360381019061024d919061259a565b6105d9565b005b61026e600480360381019061026991906125ff565b610723565b005b61028a60048036038101906102859190612697565b610cae565b005b34801561029857600080fd5b506102a1610dcb565b6040516102ae9190612723565b60405180910390f35b3480156102c357600080fd5b506102de60048036038101906102d991906128ab565b610df1565b005b3480156102ec57600080fd5b506103076004803603810190610302919061233c565b611081565b60405161031491906123de565b60405180910390f35b34801561032957600080fd5b506103326110b4565b60405161033f9190612382565b60405180910390f35b34801561035457600080fd5b5061036f600480360381019061036a9190612697565b6110ba565b005b60076020528060005260406000206000915090505481565b600260009054906101000a900473ffffffffffffffffffffffffffffffffffffffff1681565b6000806000886040516020016103c591906129b8565b60405160208183030381529060405290506000878787876040516020016103ef9493929190612a20565b604051602081830303815290604052905060008961040f57600454610413565b6005545b9050600660009054906101000a900473ffffffffffffffffffffffffffffffffffffffff1673ffffffffffffffffffffffffffffffffffffffff16630a5123698d600186866040518060600160405280888152602001600081526020016040518060400160405280600281526020017f30780000000000000000000000000000000000000000000000000000000000008152508152506040518663ffffffff1660e01b81526004016104c9959493929190612bd7565b6040805180830381865afa1580156104e5573d6000803e3d6000fd5b505050506040513d601f19601f820116820180604052508101906105099190612c54565b9450945050505097509795505050505050565b60055481565b61052a6111b2565b73ffffffffffffffffffffffffffffffffffffffff166105486105b0565b73ffffffffffffffffffffffffffffffffffffffff161461059e576040517f08c379a000000000000000000000000000000000000000000000000000000000815260040161059590612cf1565b60405180910390fd5b6105a860006111ba565b565b60035481565b60008060009054906101000a900473ffffffffffffffffffffffffffffffffffffffff16905090565b6105e16111b2565b73ffffffffffffffffffffffffffffffffffffffff166105ff6105b0565b73ffffffffffffffffffffffffffffffffffffffff1614610655576040517f08c379a000000000000000000000000000000000000000000000000000000000815260040161064c90612cf1565b60405180910390fd5b600073ffffffffffffffffffffffffffffffffffffffff168173ffffffffffffffffffffffffffffffffffffffff1614156106c5576040517f08c379a00000000000000000000000000000000000000000000000000000000081526004016106bc90612d5d565b60405180910390fd5b80600860008461ffff1661ffff16815260200190815260200160002060006101000a81548173ffffffffffffffffffffffffffffffffffffffff021916908373ffffffffffffffffffffffffffffffffffffffff1602179055505050565b60026001541415610769576040517f08c379a000000000000000000000000000000000000000000000000000000000815260040161076090612dc9565b60405180910390fd5b600260018190555061077c85838361127e565b60008560c00160208101906107919190612de9565b1561086c576107d9333088606001358960800160208101906107b39190612697565b73ffffffffffffffffffffffffffffffffffffffff16611560909392919063ffffffff16565b8560a00160208101906107ec9190612697565b73ffffffffffffffffffffffffffffffffffffffff166370a08231306040518263ffffffff1660e01b815260040161082491906123de565b602060405180830381865afa158015610841573d6000803e3d6000fd5b505050506040513d601f19601f820116820180604052508101906108659190612e16565b905061087a565b6108778686866115e9565b90505b8560a001602081019061088d9190612697565b73ffffffffffffffffffffffffffffffffffffffff166370a08231306040518263ffffffff1660e01b81526004016108c591906123de565b602060405180830381865afa1580156108e2573d6000803e3d6000fd5b505050506040513d601f19601f820116820180604052508101906109069190612e16565b811115610948576040517f08c379a000000000000000000000000000000000000000000000000000000000815260040161093f90612e8f565b60405180910390fd5b6109a7600660009054906101000a900473ffffffffffffffffffffffffffffffffffffffff16828860a00160208101906109829190612697565b73ffffffffffffffffffffffffffffffffffffffff16611c0d9092919063ffffffff16565b600073ffffffffffffffffffffffffffffffffffffffff168660000160208101906109d29190612eed565b73ffffffffffffffffffffffffffffffffffffffff161415610a29576040517f08c379a0000000000000000000000000000000000000000000000000000000008152600401610a2090612f66565b60405180910390fd5b600086610180016020810190610a3f919061233c565b9050600087610160016020810190610a57919061233c565b9050600085858a610140016020810190610a719190612697565b8b6040016020810190610a849190612de9565b604051602001610a979493929190612a20565b60405160208183030381529060405290506000600860008561ffff1661ffff16815260200190815260200160002060009054906101000a900473ffffffffffffffffffffffffffffffffffffffff16604051602001610af691906129b8565b60405160208183030381529060405290506000610b46612710610b38610b29600354612710611d1f90919063ffffffff16565b89611d3590919063ffffffff16565b611d4b90919063ffffffff16565b905060008b60e0016020810190610b5d9190612de9565b610b6957600454610b6d565b6005545b90506000349050600660009054906101000a900473ffffffffffffffffffffffffffffffffffffffff1673ffffffffffffffffffffffffffffffffffffffff16639fbf10fc8289600760008b61ffff1661ffff16815260200190815260200160002054600760008d61ffff1661ffff16815260200190815260200160002054338e8a60405180606001604052808c8152602001600081526020016040518060400160405280600281526020017f30780000000000000000000000000000000000000000000000000000000000008152508152508d8f6040518b63ffffffff1660e01b8152600401610c6699989796959493929190612f95565b6000604051808303818588803b158015610c7f57600080fd5b505af1158015610c93573d6000803e3d6000fd5b50505050505050505050505050600180819055505050505050565b60008173ffffffffffffffffffffffffffffffffffffffff166370a08231306040518263ffffffff1660e01b8152600401610ce991906123de565b602060405180830381865afa158015610d06573d6000803e3d6000fd5b505050506040513d601f19601f82011682018060405250810190610d2a9190612e16565b905060008110610d6f576040517f08c379a0000000000000000000000000000000000000000000000000000000008152600401610d6690613083565b60405180910390fd5b610d9a30828473ffffffffffffffffffffffffffffffffffffffff16611c0d9092919063ffffffff16565b610dc73033838573ffffffffffffffffffffffffffffffffffffffff16611560909392919063ffffffff16565b5050565b600660009054906101000a900473ffffffffffffffffffffffffffffffffffffffff1681565b600660009054906101000a900473ffffffffffffffffffffffffffffffffffffffff1673ffffffffffffffffffffffffffffffffffffffff163373ffffffffffffffffffffffffffffffffffffffff1614610e81576040517f08c379a0000000000000000000000000000000000000000000000000000000008152600401610e7890613115565b60405180910390fd5b600080600083806020019051810190610e9a91906131cf565b925092509250610eab868387611d61565b6127128961ffff161480610ec3575060098961ffff16145b15610f685760008290506000610ed885611e97565b9050868160600181815250508173ffffffffffffffffffffffffffffffffffffffff1663c04b8d59826040518263ffffffff1660e01b8152600401610f1d91906132c3565b6020604051808303816000875af1158015610f3c573d6000803e3d6000fd5b505050506040513d601f19601f82011682018060405250810190610f609190612e16565b505050611076565b6127118961ffff161480610f80575060028961ffff16145b1561103a5760008290506000806000806000610f9b89611eba565b945094509450945094508573ffffffffffffffffffffffffffffffffffffffff166338ed17398c868686866040518663ffffffff1660e01b8152600401610fe6959493929190613394565b6000604051808303816000875af1158015611005573d6000803e3d6000fd5b505050506040513d6000823e3d601f19601f8201168201806040525081019061102e91906134b1565b50505050505050611075565b6040517f08c379a000000000000000000000000000000000000000000000000000000000815260040161106c90613546565b60405180910390fd5b5b505050505050505050565b60086020528060005260406000206000915054906101000a900473ffffffffffffffffffffffffffffffffffffffff1681565b60045481565b6110c26111b2565b73ffffffffffffffffffffffffffffffffffffffff166110e06105b0565b73ffffffffffffffffffffffffffffffffffffffff1614611136576040517f08c379a000000000000000000000000000000000000000000000000000000000815260040161112d90612cf1565b60405180910390fd5b600073ffffffffffffffffffffffffffffffffffffffff168173ffffffffffffffffffffffffffffffffffffffff1614156111a6576040517f08c379a000000000000000000000000000000000000000000000000000000000815260040161119d906135d8565b60405180910390fd5b6111af816111ba565b50565b600033905090565b60008060009054906101000a900473ffffffffffffffffffffffffffffffffffffffff169050816000806101000a81548173ffffffffffffffffffffffffffffffffffffffff021916908373ffffffffffffffffffffffffffffffffffffffff1602179055508173ffffffffffffffffffffffffffffffffffffffff168173ffffffffffffffffffffffffffffffffffffffff167f8be0079c531659141344cd1fd0a4f28419497f9722a3daafe3b4186f6b6457e060405160405180910390a35050565b60008360600135905060003490506000856101800160208101906112a2919061233c565b90506000866101600160208101906112ba919061233c565b905060008686896101400160208101906112d49190612697565b8a60400160208101906112e79190612de9565b6040516020016112fa9493929190612a20565b60405160208183030381529060405290506113298860800160208101906113219190612697565b333088611ef3565b6000600860008561ffff1661ffff16815260200190815260200160002060009054906101000a900473ffffffffffffffffffffffffffffffffffffffff1660405160200161137791906129b8565b604051602081830303815290604052905060006113c76127106113b96113aa600354612710611d1f90919063ffffffff16565b8a611d3590919063ffffffff16565b611d4b90919063ffffffff16565b905060008a60e00160208101906113de9190612de9565b6113ea576004546113ee565b6005545b905061142f8b60800160208101906114069190612697565b600660009054906101000a900473ffffffffffffffffffffffffffffffffffffffff168a611d61565b600660009054906101000a900473ffffffffffffffffffffffffffffffffffffffff1673ffffffffffffffffffffffffffffffffffffffff16639fbf10fc8888600760008a61ffff1661ffff16815260200190815260200160002054600760008c61ffff1661ffff16815260200190815260200160002054338e8960405180606001604052808b8152602001600081526020016040518060400160405280600281526020017f30780000000000000000000000000000000000000000000000000000000000008152508152508c8e6040518b63ffffffff1660e01b815260040161152199989796959493929190612f95565b6000604051808303818588803b15801561153a57600080fd5b505af115801561154e573d6000803e3d6000fd5b50505050505050505050505050505050565b6115e3846323b872dd60e01b858585604051602401611581939291906135f8565b604051602081830303815290604052907bffffffffffffffffffffffffffffffffffffffffffffffffffffffff19166020820180517bffffffffffffffffffffffffffffffffffffffffffffffffffffffff838183161783525050505061202c565b50505050565b60008360200160208101906115fe9190612de9565b1561177857600260009054906101000a900473ffffffffffffffffffffffffffffffffffffffff1673ffffffffffffffffffffffffffffffffffffffff1684608001602081019061164f9190612697565b73ffffffffffffffffffffffffffffffffffffffff16146116a5576040517f08c379a000000000000000000000000000000000000000000000000000000000815260040161169c9061367b565b60405180910390fd5b83606001353410156116ec576040517f08c379a00000000000000000000000000000000000000000000000000000000081526004016116e3906136e7565b60405180910390fd5b600260009054906101000a900473ffffffffffffffffffffffffffffffffffffffff1673ffffffffffffffffffffffffffffffffffffffff1663d0e30db085606001356040518263ffffffff1660e01b81526004016000604051808303818588803b15801561175a57600080fd5b505af115801561176e573d6000803e3d6000fd5b50505050506117bc565b6117bb333086606001358760800160208101906117959190612697565b73ffffffffffffffffffffffffffffffffffffffff16611560909392919063ffffffff16565b5b611810846101200160208101906117d39190612697565b85606001358660800160208101906117eb9190612697565b73ffffffffffffffffffffffffffffffffffffffff16611c0d9092919063ffffffff16565b60008460a00160208101906118259190612697565b73ffffffffffffffffffffffffffffffffffffffff166370a08231306040518263ffffffff1660e01b815260040161185d91906123de565b602060405180830381865afa15801561187a573d6000803e3d6000fd5b505050506040513d601f19601f8201168201806040525081019061189e9190612e16565b90506009856101600160208101906118b6919061233c565b61ffff1614806118de5750612711856101600160208101906118d8919061233c565b61ffff16145b156119d0576000856101200160208101906118f99190612697565b9050600061194a86868080601f016020809104026020016040519081016040528093929190818152602001838380828437600081840152601f19601f82011690508083019250505050505050611e97565b90508173ffffffffffffffffffffffffffffffffffffffff1663c04b8d59826040518263ffffffff1660e01b815260040161198591906132c3565b6020604051808303816000875af11580156119a4573d6000803e3d6000fd5b505050506040513d601f19601f820116820180604052508101906119c89190612e16565b505050611b5b565b6002856101600160208101906119e6919061233c565b61ffff161480611a0e575061271285610160016020810190611a08919061233c565b61ffff16145b15611b1f57600085610120016020810190611a299190612697565b90506000806000806000611a808a8a8080601f016020809104026020016040519081016040528093929190818152602001838380828437600081840152601f19601f82011690508083019250505050505050611eba565b945094509450945094508573ffffffffffffffffffffffffffffffffffffffff166338ed173986868630866040518663ffffffff1660e01b8152600401611acb959493929190613394565b6000604051808303816000875af1158015611aea573d6000803e3d6000fd5b505050506040513d6000823e3d601f19601f82011682018060405250810190611b1391906134b1565b50505050505050611b5a565b6040517f08c379a0000000000000000000000000000000000000000000000000000000008152600401611b5190613546565b60405180910390fd5b5b60008560a0016020810190611b709190612697565b73ffffffffffffffffffffffffffffffffffffffff166370a08231306040518263ffffffff1660e01b8152600401611ba891906123de565b602060405180830381865afa158015611bc5573d6000803e3d6000fd5b505050506040513d601f19601f82011682018060405250810190611be99190612e16565b90508181611bf79190613736565b83611c02919061376a565b925050509392505050565b6000818473ffffffffffffffffffffffffffffffffffffffff1663dd62ed3e30866040518363ffffffff1660e01b8152600401611c4b9291906137c0565b602060405180830381865afa158015611c68573d6000803e3d6000fd5b505050506040513d601f19601f82011682018060405250810190611c8c9190612e16565b611c96919061376a565b9050611d198463095ea7b360e01b8584604051602401611cb79291906137e9565b604051602081830303815290604052907bffffffffffffffffffffffffffffffffffffffffffffffffffffffff19166020820180517bffffffffffffffffffffffffffffffffffffffffffffffffffffffff838183161783525050505061202c565b50505050565b60008183611d2d9190613736565b905092915050565b60008183611d439190613812565b905092915050565b60008183611d59919061389b565b905092915050565b6000808473ffffffffffffffffffffffffffffffffffffffff1663095ea7b38585604051602401611d939291906137e9565b6040516020818303038152906040529060e01b6020820180517bffffffffffffffffffffffffffffffffffffffffffffffffffffffff8381831617835250505050604051611de19190613908565b6000604051808303816000865af19150503d8060008114611e1e576040519150601f19603f3d011682016040523d82523d6000602084013e611e23565b606091505b5091509150818015611e515750600081511480611e50575080806020019051810190611e4f919061391f565b5b5b611e90576040517f08c379a0000000000000000000000000000000000000000000000000000000008152600401611e87906139be565b60405180910390fd5b5050505050565b611e9f6122a9565b81806020019051810190611eb39190613aa5565b9050919050565b600080606060008085806020019051810190611ed69190613bb1565b809550819650829750839850849950505050505091939590929450565b6000808573ffffffffffffffffffffffffffffffffffffffff166323b872dd868686604051602401611f27939291906135f8565b6040516020818303038152906040529060e01b6020820180517bffffffffffffffffffffffffffffffffffffffffffffffffffffffff8381831617835250505050604051611f759190613908565b6000604051808303816000865af19150503d8060008114611fb2576040519150601f19603f3d011682016040523d82523d6000602084013e611fb7565b606091505b5091509150818015611fe55750600081511480611fe4575080806020019051810190611fe3919061391f565b5b5b612024576040517f08c379a000000000000000000000000000000000000000000000000000000000815260040161201b90613cba565b60405180910390fd5b505050505050565b600061208e826040518060400160405280602081526020017f5361666545524332303a206c6f772d6c6576656c2063616c6c206661696c65648152508573ffffffffffffffffffffffffffffffffffffffff166120f39092919063ffffffff16565b90506000815111156120ee57808060200190518101906120ae919061391f565b6120ed576040517f08c379a00000000000000000000000000000000000000000000000000000000081526004016120e490613d4c565b60405180910390fd5b5b505050565b6060612102848460008561210b565b90509392505050565b606082471015612150576040517f08c379a000000000000000000000000000000000000000000000000000000000815260040161214790613dde565b60405180910390fd5b6121598561221f565b612198576040517f08c379a000000000000000000000000000000000000000000000000000000000815260040161218f90613e4a565b60405180910390fd5b6000808673ffffffffffffffffffffffffffffffffffffffff1685876040516121c19190613908565b60006040518083038185875af1925050503d80600081146121fe576040519150601f19603f3d011682016040523d82523d6000602084013e612203565b606091505b5091509150612213828286612242565b92505050949350505050565b6000808273ffffffffffffffffffffffffffffffffffffffff163b119050919050565b60608315612252578290506122a2565b6000835111156122655782518084602001fd5b816040517f08c379a00000000000000000000000000000000000000000000000000000000081526004016122999190613eae565b60405180910390fd5b9392505050565b6040518060a0016040528060608152602001600073ffffffffffffffffffffffffffffffffffffffff1681526020016000815260200160008152602001600081525090565b6000604051905090565b600080fd5b600080fd5b600061ffff82169050919050565b61231981612302565b811461232457600080fd5b50565b60008135905061233681612310565b92915050565b600060208284031215612352576123516122f8565b5b600061236084828501612327565b91505092915050565b6000819050919050565b61237c81612369565b82525050565b60006020820190506123976000830184612373565b92915050565b600073ffffffffffffffffffffffffffffffffffffffff82169050919050565b60006123c88261239d565b9050919050565b6123d8816123bd565b82525050565b60006020820190506123f360008301846123cf565b92915050565b612402816123bd565b811461240d57600080fd5b50565b60008135905061241f816123f9565b92915050565b60008115159050919050565b61243a81612425565b811461244557600080fd5b50565b60008135905061245781612431565b92915050565b600080fd5b600080fd5b600080fd5b60008083601f8401126124825761248161245d565b5b8235905067ffffffffffffffff81111561249f5761249e612462565b5b6020830191508360018202830111156124bb576124ba612467565b5b9250929050565b600080600080600080600060c0888a0312156124e1576124e06122f8565b5b60006124ef8a828b01612327565b97505060206125008a828b01612410565b96505060406125118a828b01612448565b955050606088013567ffffffffffffffff811115612532576125316122fd565b5b61253e8a828b0161246c565b945094505060806125518a828b01612410565b92505060a06125628a828b01612448565b91505092959891949750929550565b60006040820190506125866000830185612373565b6125936020830184612373565b9392505050565b600080604083850312156125b1576125b06122f8565b5b60006125bf85828601612327565b92505060206125d085828601612410565b9150509250929050565b600080fd5b60006101a082840312156125f6576125f56125da565b5b81905092915050565b60008060008060006101e0868803121561261c5761261b6122f8565b5b600061262a888289016125df565b9550506101a086013567ffffffffffffffff81111561264c5761264b6122fd565b5b6126588882890161246c565b94509450506101c086013567ffffffffffffffff81111561267c5761267b6122fd565b5b6126888882890161246c565b92509250509295509295909350565b6000602082840312156126ad576126ac6122f8565b5b60006126bb84828501612410565b91505092915050565b6000819050919050565b60006126e96126e46126df8461239d565b6126c4565b61239d565b9050919050565b60006126fb826126ce565b9050919050565b600061270d826126f0565b9050919050565b61271d81612702565b82525050565b60006020820190506127386000830184612714565b92915050565b600080fd5b6000601f19601f8301169050919050565b7f4e487b7100000000000000000000000000000000000000000000000000000000600052604160045260246000fd5b61278c82612743565b810181811067ffffffffffffffff821117156127ab576127aa612754565b5b80604052505050565b60006127be6122ee565b90506127ca8282612783565b919050565b600067ffffffffffffffff8211156127ea576127e9612754565b5b6127f382612743565b9050602081019050919050565b82818337600083830152505050565b600061282261281d846127cf565b6127b4565b90508281526020810184848401111561283e5761283d61273e565b5b612849848285612800565b509392505050565b600082601f8301126128665761286561245d565b5b813561287684826020860161280f565b91505092915050565b61288881612369565b811461289357600080fd5b50565b6000813590506128a58161287f565b92915050565b60008060008060008060c087890312156128c8576128c76122f8565b5b60006128d689828a01612327565b965050602087013567ffffffffffffffff8111156128f7576128f66122fd565b5b61290389828a01612851565b955050604061291489828a01612896565b945050606061292589828a01612410565b935050608061293689828a01612896565b92505060a087013567ffffffffffffffff811115612957576129566122fd565b5b61296389828a01612851565b9150509295509295509295565b60008160601b9050919050565b600061298882612970565b9050919050565b600061299a8261297d565b9050919050565b6129b26129ad826123bd565b61298f565b82525050565b60006129c482846129a1565b60148201915081905092915050565b600082825260208201905092915050565b60006129f083856129d3565b93506129fd838584612800565b612a0683612743565b840190509392505050565b612a1a81612425565b82525050565b60006060820190508181036000830152612a3b8186886129e4565b9050612a4a60208301856123cf565b612a576040830184612a11565b95945050505050565b612a6981612302565b82525050565b6000819050919050565b600060ff82169050919050565b6000612aa1612a9c612a9784612a6f565b6126c4565b612a79565b9050919050565b612ab181612a86565b82525050565b600081519050919050565b60005b83811015612ae0578082015181840152602081019050612ac5565b83811115612aef576000848401525b50505050565b6000612b0082612ab7565b612b0a81856129d3565b9350612b1a818560208601612ac2565b612b2381612743565b840191505092915050565b612b3781612369565b82525050565b600082825260208201905092915050565b6000612b5982612ab7565b612b638185612b3d565b9350612b73818560208601612ac2565b612b7c81612743565b840191505092915050565b6000606083016000830151612b9f6000860182612b2e565b506020830151612bb26020860182612b2e565b5060408301518482036040860152612bca8282612b4e565b9150508091505092915050565b600060a082019050612bec6000830188612a60565b612bf96020830187612aa8565b8181036040830152612c0b8186612af5565b90508181036060830152612c1f8185612af5565b90508181036080830152612c338184612b87565b90509695505050505050565b600081519050612c4e8161287f565b92915050565b60008060408385031215612c6b57612c6a6122f8565b5b6000612c7985828601612c3f565b9250506020612c8a85828601612c3f565b9150509250929050565b600082825260208201905092915050565b7f4f776e61626c653a2063616c6c6572206973206e6f7420746865206f776e6572600082015250565b6000612cdb602083612c94565b9150612ce682612ca5565b602082019050919050565b60006020820190508181036000830152612d0a81612cce565b9050919050565b7f43726f7373436861696e526f757465723a202163726f7373526f757465720000600082015250565b6000612d47601e83612c94565b9150612d5282612d11565b602082019050919050565b60006020820190508181036000830152612d7681612d3a565b9050919050565b7f5265656e7472616e637947756172643a207265656e7472616e742063616c6c00600082015250565b6000612db3601f83612c94565b9150612dbe82612d7d565b602082019050919050565b60006020820190508181036000830152612de281612da6565b9050919050565b600060208284031215612dff57612dfe6122f8565b5b6000612e0d84828501612448565b91505092915050565b600060208284031215612e2c57612e2b6122f8565b5b6000612e3a84828501612c3f565b91505092915050565b7f21627269646765416d6f756e7400000000000000000000000000000000000000600082015250565b6000612e79600d83612c94565b9150612e8482612e43565b602082019050919050565b60006020820190508181036000830152612ea881612e6c565b9050919050565b6000612eba8261239d565b9050919050565b612eca81612eaf565b8114612ed557600080fd5b50565b600081359050612ee781612ec1565b92915050565b600060208284031215612f0357612f026122f8565b5b6000612f1184828501612ed8565b91505092915050565b7f746f5f5a45524f5f414444520000000000000000000000000000000000000000600082015250565b6000612f50600c83612c94565b9150612f5b82612f1a565b602082019050919050565b60006020820190508181036000830152612f7f81612f43565b9050919050565b612f8f81612eaf565b82525050565b600061012082019050612fab600083018c612a60565b612fb8602083018b612373565b612fc5604083018a612373565b612fd26060830189612f86565b612fdf6080830188612373565b612fec60a0830187612373565b81810360c0830152612ffe8186612b87565b905081810360e08301526130128185612af5565b90508181036101008301526130278184612af5565b90509a9950505050505050505050565b7f6e6f20726566756e6461626c6520746f6b656e00000000000000000000000000600082015250565b600061306d601383612c94565b915061307882613037565b602082019050919050565b6000602082019050818103600083015261309c81613060565b9050919050565b7f6f6e6c7920737461726761746520726f757465722063616e2063616c6c20736760008201527f5265636569766521000000000000000000000000000000000000000000000000602082015250565b60006130ff602883612c94565b915061310a826130a3565b604082019050919050565b6000602082019050818103600083015261312e816130f2565b9050919050565b6000613148613143846127cf565b6127b4565b9050828152602081018484840111156131645761316361273e565b5b61316f848285612ac2565b509392505050565b600082601f83011261318c5761318b61245d565b5b815161319c848260208601613135565b91505092915050565b6000815190506131b481612ec1565b92915050565b6000815190506131c981612431565b92915050565b6000806000606084860312156131e8576131e76122f8565b5b600084015167ffffffffffffffff811115613206576132056122fd565b5b61321286828701613177565b9350506020613223868287016131a5565b9250506040613234868287016131ba565b9150509250925092565b613247816123bd565b82525050565b600060a083016000830151848203600086015261326a8282612b4e565b915050602083015161327f602086018261323e565b5060408301516132926040860182612b2e565b5060608301516132a56060860182612b2e565b5060808301516132b86080860182612b2e565b508091505092915050565b600060208201905081810360008301526132dd818461324d565b905092915050565b600081519050919050565b600082825260208201905092915050565b6000819050602082019050919050565b600061331d838361323e565b60208301905092915050565b6000602082019050919050565b6000613341826132e5565b61334b81856132f0565b935061335683613301565b8060005b8381101561338757815161336e8882613311565b975061337983613329565b92505060018101905061335a565b5085935050505092915050565b600060a0820190506133a96000830188612373565b6133b66020830187612373565b81810360408301526133c88186613336565b90506133d760608301856123cf565b6133e46080830184612373565b9695505050505050565b600067ffffffffffffffff82111561340957613408612754565b5b602082029050602081019050919050565b600061342d613428846133ee565b6127b4565b905080838252602082019050602084028301858111156134505761344f612467565b5b835b8181101561347957806134658882612c3f565b845260208401935050602081019050613452565b5050509392505050565b600082601f8301126134985761349761245d565b5b81516134a884826020860161341a565b91505092915050565b6000602082840312156134c7576134c66122f8565b5b600082015167ffffffffffffffff8111156134e5576134e46122fd565b5b6134f184828501613483565b91505092915050565b7f756e737570706f7274656420636861696e000000000000000000000000000000600082015250565b6000613530601183612c94565b915061353b826134fa565b602082019050919050565b6000602082019050818103600083015261355f81613523565b9050919050565b7f4f776e61626c653a206e6577206f776e657220697320746865207a65726f206160008201527f6464726573730000000000000000000000000000000000000000000000000000602082015250565b60006135c2602683612c94565b91506135cd82613566565b604082019050919050565b600060208201905081810360008301526135f1816135b5565b9050919050565b600060608201905061360d60008301866123cf565b61361a60208301856123cf565b6136276040830184612373565b949350505050565b7f746b696e206e6f206e6174697665577261700000000000000000000000000000600082015250565b6000613665601283612c94565b91506136708261362f565b602082019050919050565b6000602082019050818103600083015261369481613658565b9050919050565b7f696e7366636e7420616d74000000000000000000000000000000000000000000600082015250565b60006136d1600b83612c94565b91506136dc8261369b565b602082019050919050565b60006020820190508181036000830152613700816136c4565b9050919050565b7f4e487b7100000000000000000000000000000000000000000000000000000000600052601160045260246000fd5b600061374182612369565b915061374c83612369565b92508282101561375f5761375e613707565b5b828203905092915050565b600061377582612369565b915061378083612369565b9250827fffffffffffffffffffffffffffffffffffffffffffffffffffffffffffffffff038211156137b5576137b4613707565b5b828201905092915050565b60006040820190506137d560008301856123cf565b6137e260208301846123cf565b9392505050565b60006040820190506137fe60008301856123cf565b61380b6020830184612373565b9392505050565b600061381d82612369565b915061382883612369565b9250817fffffffffffffffffffffffffffffffffffffffffffffffffffffffffffffffff048311821515161561386157613860613707565b5b828202905092915050565b7f4e487b7100000000000000000000000000000000000000000000000000000000600052601260045260246000fd5b60006138a682612369565b91506138b183612369565b9250826138c1576138c061386c565b5b828204905092915050565b600081905092915050565b60006138e282612ab7565b6138ec81856138cc565b93506138fc818560208601612ac2565b80840191505092915050565b600061391482846138d7565b915081905092915050565b600060208284031215613935576139346122f8565b5b6000613943848285016131ba565b91505092915050565b7f5472616e7366657248656c7065723a3a73616665417070726f76653a2061707060008201527f726f7665206661696c6564000000000000000000000000000000000000000000602082015250565b60006139a8602b83612c94565b91506139b38261394c565b604082019050919050565b600060208201905081810360008301526139d78161399b565b9050919050565b600080fd5b600080fd5b6000815190506139f7816123f9565b92915050565b600060a08284031215613a1357613a126139de565b5b613a1d60a06127b4565b9050600082015167ffffffffffffffff811115613a3d57613a3c6139e3565b5b613a4984828501613177565b6000830152506020613a5d848285016139e8565b6020830152506040613a7184828501612c3f565b6040830152506060613a8584828501612c3f565b6060830152506080613a9984828501612c3f565b60808301525092915050565b600060208284031215613abb57613aba6122f8565b5b600082015167ffffffffffffffff811115613ad957613ad86122fd565b5b613ae5848285016139fd565b91505092915050565b600067ffffffffffffffff821115613b0957613b08612754565b5b602082029050602081019050919050565b6000613b2d613b2884613aee565b6127b4565b90508083825260208201905060208402830185811115613b5057613b4f612467565b5b835b81811015613b795780613b6588826139e8565b845260208401935050602081019050613b52565b5050509392505050565b600082601f830112613b9857613b9761245d565b5b8151613ba8848260208601613b1a565b91505092915050565b600080600080600060a08688031215613bcd57613bcc6122f8565b5b6000613bdb88828901612c3f565b9550506020613bec88828901612c3f565b945050604086015167ffffffffffffffff811115613c0d57613c0c6122fd565b5b613c1988828901613b83565b9350506060613c2a888289016131a5565b9250506080613c3b88828901612c3f565b9150509295509295909350565b7f5472616e7366657248656c7065723a3a7472616e7366657246726f6d3a20747260008201527f616e7366657246726f6d206661696c6564000000000000000000000000000000602082015250565b6000613ca4603183612c94565b9150613caf82613c48565b604082019050919050565b60006020820190508181036000830152613cd381613c97565b9050919050565b7f5361666545524332303a204552433230206f7065726174696f6e20646964206e60008201527f6f74207375636365656400000000000000000000000000000000000000000000602082015250565b6000613d36602a83612c94565b9150613d4182613cda565b604082019050919050565b60006020820190508181036000830152613d6581613d29565b9050919050565b7f416464726573733a20696e73756666696369656e742062616c616e636520666f60008201527f722063616c6c0000000000000000000000000000000000000000000000000000602082015250565b6000613dc8602683612c94565b9150613dd382613d6c565b604082019050919050565b60006020820190508181036000830152613df781613dbb565b9050919050565b7f416464726573733a2063616c6c20746f206e6f6e2d636f6e7472616374000000600082015250565b6000613e34601d83612c94565b9150613e3f82613dfe565b602082019050919050565b60006020820190508181036000830152613e6381613e27565b9050919050565b600081519050919050565b6000613e8082613e6a565b613e8a8185612c94565b9350613e9a818560208601612ac2565b613ea381612743565b840191505092915050565b60006020820190508181036000830152613ec88184613e75565b90509291505056fea26469706673582212202671a961921fcbc29ed51ad4ff1135eb4bebf6eeeb7e22ce2f53d93f71c20ed664736f6c634300080c0033",
  "linkReferences": {},
  "deployedLinkReferences": {}
}