{
  "_format": "hh-sol-artifact-1",
  "contractName": "TransferSwapper",
  "sourceName": "contracts/TransferSwapper.sol",
  "abi": [
    {
      "inputs": [
        {
          "internalType": "address",
          "name": "_nativeWrap",
          "type": "address"
        },
        {
          "internalType": "address",
          "name": "_stargateRouter",
          "type": "address"
        }
      ],
      "stateMutability": "nonpayable",
      "type": "constructor"
    },
    {
      "anonymous": false,
      "inputs": [
        {
          "indexed": true,
          "internalType": "address",
          "name": "previousOwner",
          "type": "address"
        },
        {
          "indexed": true,
          "internalType": "address",
          "name": "newOwner",
          "type": "address"
        }
      ],
      "name": "OwnershipTransferred",
      "type": "event"
    },
    {
      "inputs": [],
      "name": "bridgeSlippage",
      "outputs": [
        {
          "internalType": "uint256",
          "name": "",
          "type": "uint256"
        }
      ],
      "stateMutability": "view",
      "type": "function"
    },
    {
      "inputs": [
        {
          "internalType": "uint16",
          "name": "",
          "type": "uint16"
        }
      ],
      "name": "crossRouters",
      "outputs": [
        {
          "internalType": "address",
          "name": "",
          "type": "address"
        }
      ],
      "stateMutability": "view",
      "type": "function"
    },
    {
      "inputs": [],
      "name": "dstGasForNoSwapCall",
      "outputs": [
        {
          "internalType": "uint256",
          "name": "",
          "type": "uint256"
        }
      ],
      "stateMutability": "view",
      "type": "function"
    },
    {
      "inputs": [],
      "name": "dstGasForSwapCall",
      "outputs": [
        {
          "internalType": "uint256",
          "name": "",
          "type": "uint256"
        }
      ],
      "stateMutability": "view",
      "type": "function"
    },
    {
      "inputs": [],
      "name": "nativeWrap",
      "outputs": [
        {
          "internalType": "address",
          "name": "",
          "type": "address"
        }
      ],
      "stateMutability": "view",
      "type": "function"
    },
    {
      "inputs": [],
      "name": "owner",
      "outputs": [
        {
          "internalType": "address",
          "name": "",
          "type": "address"
        }
      ],
      "stateMutability": "view",
      "type": "function"
    },
    {
      "inputs": [
        {
          "internalType": "uint16",
          "name": "dstChainId",
          "type": "uint16"
        },
        {
          "internalType": "address",
          "name": "dstTokenOut",
          "type": "address"
        },
        {
          "internalType": "address",
          "name": "to",
          "type": "address"
        },
        {
          "internalType": "bytes",
          "name": "_dstSwapDesc",
          "type": "bytes"
        }
      ],
      "name": "quoteLayerZeroFee",
      "outputs": [
        {
          "internalType": "uint256",
          "name": "",
          "type": "uint256"
        },
        {
          "internalType": "uint256",
          "name": "",
          "type": "uint256"
        }
      ],
      "stateMutability": "view",
      "type": "function"
    },
    {
      "inputs": [
        {
          "internalType": "uint16",
          "name": "",
          "type": "uint16"
        }
      ],
      "name": "quotePoolIds",
      "outputs": [
        {
          "internalType": "uint256",
          "name": "",
          "type": "uint256"
        }
      ],
      "stateMutability": "view",
      "type": "function"
    },
    {
      "inputs": [],
      "name": "renounceOwnership",
      "outputs": [],
      "stateMutability": "nonpayable",
      "type": "function"
    },
    {
      "inputs": [
        {
          "internalType": "uint16",
          "name": "_chainId",
          "type": "uint16"
        },
        {
          "internalType": "address",
          "name": "_crossRouter",
          "type": "address"
        }
      ],
      "name": "setCrossChainRouter",
      "outputs": [],
      "stateMutability": "nonpayable",
      "type": "function"
    },
    {
      "inputs": [
        {
          "internalType": "uint16",
          "name": "_chainId",
          "type": "uint16"
        },
        {
          "internalType": "bytes",
          "name": "_srcAddress",
          "type": "bytes"
        },
        {
          "internalType": "uint256",
          "name": "_nonce",
          "type": "uint256"
        },
        {
          "internalType": "address",
          "name": "_token",
          "type": "address"
        },
        {
          "internalType": "uint256",
          "name": "amountLD",
          "type": "uint256"
        },
        {
          "internalType": "bytes",
          "name": "_payload",
          "type": "bytes"
        }
      ],
      "name": "sgReceive",
      "outputs": [],
      "stateMutability": "nonpayable",
      "type": "function"
    },
    {
      "inputs": [],
      "name": "stargateRouter",
      "outputs": [
        {
          "internalType": "contract IStargateRouter",
          "name": "",
          "type": "address"
        }
      ],
      "stateMutability": "view",
      "type": "function"
    },
    {
      "inputs": [
        {
          "internalType": "address",
          "name": "newOwner",
          "type": "address"
        }
      ],
      "name": "transferOwnership",
      "outputs": [],
      "stateMutability": "nonpayable",
      "type": "function"
    },
    {
      "inputs": [
        {
          "components": [
            {
              "internalType": "address payable",
              "name": "to",
              "type": "address"
            },
            {
              "internalType": "bool",
              "name": "nativeIn",
              "type": "bool"
            },
            {
              "internalType": "bool",
              "name": "nativeOut",
              "type": "bool"
            },
            {
              "internalType": "uint256",
              "name": "amountIn",
              "type": "uint256"
            },
            {
              "internalType": "address",
              "name": "tokenIn",
              "type": "address"
            },
            {
              "internalType": "address",
              "name": "tokenOut",
              "type": "address"
            },
            {
              "internalType": "address",
              "name": "dstTokenOut",
              "type": "address"
            },
            {
              "internalType": "address",
              "name": "router",
              "type": "address"
            },
            {
              "internalType": "address",
              "name": "dstRouter",
              "type": "address"
            },
            {
              "internalType": "uint16",
              "name": "srcChainId",
              "type": "uint16"
            },
            {
              "internalType": "uint16",
              "name": "dstChainId",
              "type": "uint16"
            }
          ],
          "internalType": "struct TransferSwapper.TransferDescription",
          "name": "_transferDesc",
          "type": "tuple"
        },
        {
          "internalType": "bytes",
          "name": "_srcSwapDesc",
          "type": "bytes"
        },
        {
          "internalType": "bytes",
          "name": "_dstSwapDesc",
          "type": "bytes"
        }
      ],
      "name": "transferWithSwap",
      "outputs": [],
      "stateMutability": "payable",
      "type": "function"
    }
  ],
  "bytecode": "0x60806040523480156200001157600080fd5b5060405162003aff38038062003aff833981810160405281019062000037919062000369565b620000576200004b6200023360201b60201c565b6200023b60201b60201c565b6001808190555081600260006101000a81548173ffffffffffffffffffffffffffffffffffffffff021916908373ffffffffffffffffffffffffffffffffffffffff16021790555080600660006101000a81548173ffffffffffffffffffffffffffffffffffffffff021916908373ffffffffffffffffffffffffffffffffffffffff160217905550606460038190555062057e4060048190555062013880600581905550600160076000600161ffff16815260200190815260200160002081905550600260076000600261ffff16815260200190815260200160002081905550600160076000600661ffff16815260200190815260200160002081905550600160076000600961ffff16815260200190815260200160002081905550600160076000600a61ffff16815260200190815260200160002081905550600160076000600b61ffff16815260200190815260200160002081905550600160076000600c61ffff1681526020019081526020016000208190555060016007600061271161ffff1681526020019081526020016000208190555060026007600061271261ffff1681526020019081526020016000208190555060016007600061271961ffff168152602001908152602001600020819055505050620003b0565b600033905090565b60008060009054906101000a900473ffffffffffffffffffffffffffffffffffffffff169050816000806101000a81548173ffffffffffffffffffffffffffffffffffffffff021916908373ffffffffffffffffffffffffffffffffffffffff1602179055508173ffffffffffffffffffffffffffffffffffffffff168173ffffffffffffffffffffffffffffffffffffffff167f8be0079c531659141344cd1fd0a4f28419497f9722a3daafe3b4186f6b6457e060405160405180910390a35050565b600080fd5b600073ffffffffffffffffffffffffffffffffffffffff82169050919050565b6000620003318262000304565b9050919050565b620003438162000324565b81146200034f57600080fd5b50565b600081519050620003638162000338565b92915050565b60008060408385031215620003835762000382620002ff565b5b6000620003938582860162000352565b9250506020620003a68582860162000352565b9150509250929050565b61373f80620003c06000396000f3fe6080604052600436106100dd5760003560e01c8063a9e56f3c1161007f578063b210a6bf11610059578063b210a6bf1461029d578063b7b95fce146102b9578063c22b7419146102f6578063f2fde38b14610321576100dd565b8063a9e56f3c1461020b578063ab8236f314610236578063ad1966f21461025f576100dd565b8063715018a6116100bb578063715018a61461017557806383af55501461018c5780638da5cb5b146101b75780639b90167e146101e2576100dd565b80632b51d7eb146100e2578063457bfa2f1461011f578063616d29641461014a575b600080fd5b3480156100ee57600080fd5b5061010960048036038101906101049190611c8b565b61034a565b6040516101169190611cd1565b60405180910390f35b34801561012b57600080fd5b50610134610362565b6040516101419190611d2d565b60405180910390f35b34801561015657600080fd5b5061015f610388565b60405161016c9190611cd1565b60405180910390f35b34801561018157600080fd5b5061018a61038e565b005b34801561019857600080fd5b506101a1610416565b6040516101ae9190611cd1565b60405180910390f35b3480156101c357600080fd5b506101cc61041c565b6040516101d99190611d2d565b60405180910390f35b3480156101ee57600080fd5b5061020960048036038101906102049190611d74565b610445565b005b34801561021757600080fd5b5061022061058f565b60405161022d9190611e13565b60405180910390f35b34801561024257600080fd5b5061025d60048036038101906102589190611fa0565b6105b5565b005b34801561026b57600080fd5b50610286600480360381019061028191906120c5565b610846565b60405161029492919061214d565b60405180910390f35b6102b760048036038101906102b2919061219b565b6109b6565b005b3480156102c557600080fd5b506102e060048036038101906102db9190611c8b565b610e32565b6040516102ed9190611d2d565b60405180910390f35b34801561030257600080fd5b5061030b610e65565b6040516103189190611cd1565b60405180910390f35b34801561032d57600080fd5b5061034860048036038101906103439190612233565b610e6b565b005b60076020528060005260406000206000915090505481565b600260009054906101000a900473ffffffffffffffffffffffffffffffffffffffff1681565b60055481565b610396610f63565b73ffffffffffffffffffffffffffffffffffffffff166103b461041c565b73ffffffffffffffffffffffffffffffffffffffff161461040a576040517f08c379a0000000000000000000000000000000000000000000000000000000008152600401610401906122bd565b60405180910390fd5b6104146000610f6b565b565b60035481565b60008060009054906101000a900473ffffffffffffffffffffffffffffffffffffffff16905090565b61044d610f63565b73ffffffffffffffffffffffffffffffffffffffff1661046b61041c565b73ffffffffffffffffffffffffffffffffffffffff16146104c1576040517f08c379a00000000000000000000000000000000000000000000000000000000081526004016104b8906122bd565b60405180910390fd5b600073ffffffffffffffffffffffffffffffffffffffff168173ffffffffffffffffffffffffffffffffffffffff161415610531576040517f08c379a000000000000000000000000000000000000000000000000000000000815260040161052890612329565b60405180910390fd5b80600860008461ffff1661ffff16815260200190815260200160002060006101000a81548173ffffffffffffffffffffffffffffffffffffffff021916908373ffffffffffffffffffffffffffffffffffffffff1602179055505050565b600660009054906101000a900473ffffffffffffffffffffffffffffffffffffffff1681565b600660009054906101000a900473ffffffffffffffffffffffffffffffffffffffff1673ffffffffffffffffffffffffffffffffffffffff163373ffffffffffffffffffffffffffffffffffffffff1614610645576040517f08c379a000000000000000000000000000000000000000000000000000000000815260040161063c906123bb565b60405180910390fd5b60008180602001905181019061065b9190612555565b905061068a84600660009054906101000a900473ffffffffffffffffffffffffffffffffffffffff168561102f565b6127118761ffff1614156107365760008160200151905060006106b08360000151611165565b90508173ffffffffffffffffffffffffffffffffffffffff1663c04b8d59826040518263ffffffff1660e01b81526004016106eb9190612687565b6020604051808303816000875af115801561070a573d6000803e3d6000fd5b505050506040513d601f19601f8201168201806040525081019061072e91906126be565b50505061083d565b6127128761ffff1614156108015760008160200151905060008060008060006107628760000151611188565b945094509450945094508573ffffffffffffffffffffffffffffffffffffffff166338ed17398a868686866040518663ffffffff1660e01b81526004016107ad95949392919061279a565b6000604051808303816000875af11580156107cc573d6000803e3d6000fd5b505050506040513d6000823e3d601f19601f820116820180604052508101906107f591906128b7565b5050505050505061083c565b6040517f08c379a00000000000000000000000000000000000000000000000000000000081526004016108339061294c565b60405180910390fd5b5b50505050505050565b60008060008560405160200161085c91906129b4565b604051602081830303815290604052905060008073ffffffffffffffffffffffffffffffffffffffff168873ffffffffffffffffffffffffffffffffffffffff16146108aa576004546108ae565b6005545b9050600660009054906101000a900473ffffffffffffffffffffffffffffffffffffffff1673ffffffffffffffffffffffffffffffffffffffff16630a5123698a6001858a8a6040518060600160405280898152602001600081526020016040518060400160405280600281526020017f30780000000000000000000000000000000000000000000000000000000000008152508152506040518763ffffffff1660e01b815260040161096696959493929190612aed565b6040805180830381865afa158015610982573d6000803e3d6000fd5b505050506040513d601f19601f820116820180604052508101906109a69190612b57565b9350935050509550959350505050565b600260015414156109fc576040517f08c379a00000000000000000000000000000000000000000000000000000000081526004016109f390612be3565b60405180910390fd5b600260018190555060003490506000610a168787876111c1565b90508660a0016020810190610a2b9190612233565b73ffffffffffffffffffffffffffffffffffffffff166370a08231306040518263ffffffff1660e01b8152600401610a639190611d2d565b602060405180830381865afa158015610a80573d6000803e3d6000fd5b505050506040513d601f19601f82011682018060405250810190610aa491906126be565b811115610ae6576040517f08c379a0000000000000000000000000000000000000000000000000000000008152600401610add90612c4f565b60405180910390fd5b610b45600660009054906101000a900473ffffffffffffffffffffffffffffffffffffffff16828960a0016020810190610b209190612233565b73ffffffffffffffffffffffffffffffffffffffff1661179e9092919063ffffffff16565b600073ffffffffffffffffffffffffffffffffffffffff16876000016020810190610b709190612cad565b73ffffffffffffffffffffffffffffffffffffffff161415610bc7576040517f08c379a0000000000000000000000000000000000000000000000000000000008152600401610bbe90612d26565b60405180910390fd5b600087610140016020810190610bdd9190611c8b565b9050600088610120016020810190610bf59190611c8b565b90503660008787915091506000600860008661ffff1661ffff16815260200190815260200160002060009054906101000a900473ffffffffffffffffffffffffffffffffffffffff16604051602001610c4e91906129b4565b60405160208183030381529060405290506000610c9e612710610c90610c816003546127106118b090919063ffffffff16565b8a6118c690919063ffffffff16565b6118dc90919063ffffffff16565b905060008073ffffffffffffffffffffffffffffffffffffffff168e60c0016020810190610ccc9190612233565b73ffffffffffffffffffffffffffffffffffffffff1614610cef57600454610cf3565b6005545b9050600660009054906101000a900473ffffffffffffffffffffffffffffffffffffffff1673ffffffffffffffffffffffffffffffffffffffff16639fbf10fc8a89600760008b61ffff1661ffff16815260200190815260200160002054600760008d61ffff1661ffff16815260200190815260200160002054338e8960405180606001604052808b8152602001600081526020016040518060400160405280600281526020017f30780000000000000000000000000000000000000000000000000000000000008152508152508c8f8f6040518c63ffffffff1660e01b8152600401610de99a99989796959493929190612d55565b6000604051808303818588803b158015610e0257600080fd5b505af1158015610e16573d6000803e3d6000fd5b5050505050505050505050505050600180819055505050505050565b60086020528060005260406000206000915054906101000a900473ffffffffffffffffffffffffffffffffffffffff1681565b60045481565b610e73610f63565b73ffffffffffffffffffffffffffffffffffffffff16610e9161041c565b73ffffffffffffffffffffffffffffffffffffffff1614610ee7576040517f08c379a0000000000000000000000000000000000000000000000000000000008152600401610ede906122bd565b60405180910390fd5b600073ffffffffffffffffffffffffffffffffffffffff168173ffffffffffffffffffffffffffffffffffffffff161415610f57576040517f08c379a0000000000000000000000000000000000000000000000000000000008152600401610f4e90612e6b565b60405180910390fd5b610f6081610f6b565b50565b600033905090565b60008060009054906101000a900473ffffffffffffffffffffffffffffffffffffffff169050816000806101000a81548173ffffffffffffffffffffffffffffffffffffffff021916908373ffffffffffffffffffffffffffffffffffffffff1602179055508173ffffffffffffffffffffffffffffffffffffffff168173ffffffffffffffffffffffffffffffffffffffff167f8be0079c531659141344cd1fd0a4f28419497f9722a3daafe3b4186f6b6457e060405160405180910390a35050565b6000808473ffffffffffffffffffffffffffffffffffffffff1663095ea7b38585604051602401611061929190612e8b565b6040516020818303038152906040529060e01b6020820180517bffffffffffffffffffffffffffffffffffffffffffffffffffffffff83818316178352505050506040516110af9190612ef0565b6000604051808303816000865af19150503d80600081146110ec576040519150601f19603f3d011682016040523d82523d6000602084013e6110f1565b606091505b509150915081801561111f575060008151148061111e57508080602001905181019061111d9190612f07565b5b5b61115e576040517f08c379a000000000000000000000000000000000000000000000000000000000815260040161115590612fa6565b60405180910390fd5b5050505050565b61116d611bf8565b81806020019051810190611181919061306e565b9050919050565b6000806060600080858060200190518101906111a4919061318f565b809550819650829750839850849950505050505091939590929450565b60008360200160208101906111d6919061323b565b1561135057600260009054906101000a900473ffffffffffffffffffffffffffffffffffffffff1673ffffffffffffffffffffffffffffffffffffffff168460800160208101906112279190612233565b73ffffffffffffffffffffffffffffffffffffffff161461127d576040517f08c379a0000000000000000000000000000000000000000000000000000000008152600401611274906132b4565b60405180910390fd5b83606001353410156112c4576040517f08c379a00000000000000000000000000000000000000000000000000000000081526004016112bb90613320565b60405180910390fd5b600260009054906101000a900473ffffffffffffffffffffffffffffffffffffffff1673ffffffffffffffffffffffffffffffffffffffff1663d0e30db085606001356040518263ffffffff1660e01b81526004016000604051808303818588803b15801561133257600080fd5b505af1158015611346573d6000803e3d6000fd5b5050505050611394565b6113933330866060013587608001602081019061136d9190612233565b73ffffffffffffffffffffffffffffffffffffffff166118f2909392919063ffffffff16565b5b6113e78460e00160208101906113aa9190612233565b85606001358660800160208101906113c29190612233565b73ffffffffffffffffffffffffffffffffffffffff1661179e9092919063ffffffff16565b60008460a00160208101906113fc9190612233565b73ffffffffffffffffffffffffffffffffffffffff166370a08231306040518263ffffffff1660e01b81526004016114349190611d2d565b602060405180830381865afa158015611451573d6000803e3d6000fd5b505050506040513d601f19601f8201168201806040525081019061147591906126be565b90506127118561012001602081019061148e9190611c8b565b61ffff1614156115845760008560e00160208101906114ad9190612233565b905060006114fe86868080601f016020809104026020016040519081016040528093929190818152602001838380828437600081840152601f19601f82011690508083019250505050505050611165565b90508173ffffffffffffffffffffffffffffffffffffffff1663c04b8d59826040518263ffffffff1660e01b81526004016115399190612687565b6020604051808303816000875af1158015611558573d6000803e3d6000fd5b505050506040513d601f19601f8201168201806040525081019061157c91906126be565b5050506116ec565b6127128561012001602081019061159b9190611c8b565b61ffff1614156116b05760008560e00160208101906115ba9190612233565b905060008060008060006116118a8a8080601f016020809104026020016040519081016040528093929190818152602001838380828437600081840152601f19601f82011690508083019250505050505050611188565b945094509450945094508573ffffffffffffffffffffffffffffffffffffffff166338ed173986868630866040518663ffffffff1660e01b815260040161165c95949392919061279a565b6000604051808303816000875af115801561167b573d6000803e3d6000fd5b505050506040513d6000823e3d601f19601f820116820180604052508101906116a491906128b7565b505050505050506116eb565b6040517f08c379a00000000000000000000000000000000000000000000000000000000081526004016116e29061294c565b60405180910390fd5b5b60008560a00160208101906117019190612233565b73ffffffffffffffffffffffffffffffffffffffff166370a08231306040518263ffffffff1660e01b81526004016117399190611d2d565b602060405180830381865afa158015611756573d6000803e3d6000fd5b505050506040513d601f19601f8201168201806040525081019061177a91906126be565b90508181611788919061336f565b8361179391906133a3565b925050509392505050565b6000818473ffffffffffffffffffffffffffffffffffffffff1663dd62ed3e30866040518363ffffffff1660e01b81526004016117dc9291906133f9565b602060405180830381865afa1580156117f9573d6000803e3d6000fd5b505050506040513d601f19601f8201168201806040525081019061181d91906126be565b61182791906133a3565b90506118aa8463095ea7b360e01b8584604051602401611848929190612e8b565b604051602081830303815290604052907bffffffffffffffffffffffffffffffffffffffffffffffffffffffff19166020820180517bffffffffffffffffffffffffffffffffffffffffffffffffffffffff838183161783525050505061197b565b50505050565b600081836118be919061336f565b905092915050565b600081836118d49190613422565b905092915050565b600081836118ea91906134ab565b905092915050565b611975846323b872dd60e01b858585604051602401611913939291906134dc565b604051602081830303815290604052907bffffffffffffffffffffffffffffffffffffffffffffffffffffffff19166020820180517bffffffffffffffffffffffffffffffffffffffffffffffffffffffff838183161783525050505061197b565b50505050565b60006119dd826040518060400160405280602081526020017f5361666545524332303a206c6f772d6c6576656c2063616c6c206661696c65648152508573ffffffffffffffffffffffffffffffffffffffff16611a429092919063ffffffff16565b9050600081511115611a3d57808060200190518101906119fd9190612f07565b611a3c576040517f08c379a0000000000000000000000000000000000000000000000000000000008152600401611a3390613585565b60405180910390fd5b5b505050565b6060611a518484600085611a5a565b90509392505050565b606082471015611a9f576040517f08c379a0000000000000000000000000000000000000000000000000000000008152600401611a9690613617565b60405180910390fd5b611aa885611b6e565b611ae7576040517f08c379a0000000000000000000000000000000000000000000000000000000008152600401611ade90613683565b60405180910390fd5b6000808673ffffffffffffffffffffffffffffffffffffffff168587604051611b109190612ef0565b60006040518083038185875af1925050503d8060008114611b4d576040519150601f19603f3d011682016040523d82523d6000602084013e611b52565b606091505b5091509150611b62828286611b91565b92505050949350505050565b6000808273ffffffffffffffffffffffffffffffffffffffff163b119050919050565b60608315611ba157829050611bf1565b600083511115611bb45782518084602001fd5b816040517f08c379a0000000000000000000000000000000000000000000000000000000008152600401611be891906136e7565b60405180910390fd5b9392505050565b6040518060a0016040528060608152602001600073ffffffffffffffffffffffffffffffffffffffff1681526020016000815260200160008152602001600081525090565b6000604051905090565b600080fd5b600080fd5b600061ffff82169050919050565b611c6881611c51565b8114611c7357600080fd5b50565b600081359050611c8581611c5f565b92915050565b600060208284031215611ca157611ca0611c47565b5b6000611caf84828501611c76565b91505092915050565b6000819050919050565b611ccb81611cb8565b82525050565b6000602082019050611ce66000830184611cc2565b92915050565b600073ffffffffffffffffffffffffffffffffffffffff82169050919050565b6000611d1782611cec565b9050919050565b611d2781611d0c565b82525050565b6000602082019050611d426000830184611d1e565b92915050565b611d5181611d0c565b8114611d5c57600080fd5b50565b600081359050611d6e81611d48565b92915050565b60008060408385031215611d8b57611d8a611c47565b5b6000611d9985828601611c76565b9250506020611daa85828601611d5f565b9150509250929050565b6000819050919050565b6000611dd9611dd4611dcf84611cec565b611db4565b611cec565b9050919050565b6000611deb82611dbe565b9050919050565b6000611dfd82611de0565b9050919050565b611e0d81611df2565b82525050565b6000602082019050611e286000830184611e04565b92915050565b600080fd5b600080fd5b6000601f19601f8301169050919050565b7f4e487b7100000000000000000000000000000000000000000000000000000000600052604160045260246000fd5b611e8182611e38565b810181811067ffffffffffffffff82111715611ea057611e9f611e49565b5b80604052505050565b6000611eb3611c3d565b9050611ebf8282611e78565b919050565b600067ffffffffffffffff821115611edf57611ede611e49565b5b611ee882611e38565b9050602081019050919050565b82818337600083830152505050565b6000611f17611f1284611ec4565b611ea9565b905082815260208101848484011115611f3357611f32611e33565b5b611f3e848285611ef5565b509392505050565b600082601f830112611f5b57611f5a611e2e565b5b8135611f6b848260208601611f04565b91505092915050565b611f7d81611cb8565b8114611f8857600080fd5b50565b600081359050611f9a81611f74565b92915050565b60008060008060008060c08789031215611fbd57611fbc611c47565b5b6000611fcb89828a01611c76565b965050602087013567ffffffffffffffff811115611fec57611feb611c4c565b5b611ff889828a01611f46565b955050604061200989828a01611f8b565b945050606061201a89828a01611d5f565b935050608061202b89828a01611f8b565b92505060a087013567ffffffffffffffff81111561204c5761204b611c4c565b5b61205889828a01611f46565b9150509295509295509295565b600080fd5b600080fd5b60008083601f84011261208557612084611e2e565b5b8235905067ffffffffffffffff8111156120a2576120a1612065565b5b6020830191508360018202830111156120be576120bd61206a565b5b9250929050565b6000806000806000608086880312156120e1576120e0611c47565b5b60006120ef88828901611c76565b955050602061210088828901611d5f565b945050604061211188828901611d5f565b935050606086013567ffffffffffffffff81111561213257612131611c4c565b5b61213e8882890161206f565b92509250509295509295909350565b60006040820190506121626000830185611cc2565b61216f6020830184611cc2565b9392505050565b600080fd5b6000610160828403121561219257612191612176565b5b81905092915050565b60008060008060006101a086880312156121b8576121b7611c47565b5b60006121c68882890161217b565b95505061016086013567ffffffffffffffff8111156121e8576121e7611c4c565b5b6121f48882890161206f565b945094505061018086013567ffffffffffffffff81111561221857612217611c4c565b5b6122248882890161206f565b92509250509295509295909350565b60006020828403121561224957612248611c47565b5b600061225784828501611d5f565b91505092915050565b600082825260208201905092915050565b7f4f776e61626c653a2063616c6c6572206973206e6f7420746865206f776e6572600082015250565b60006122a7602083612260565b91506122b282612271565b602082019050919050565b600060208201905081810360008301526122d68161229a565b9050919050565b7f43726f7373436861696e526f757465723a202163726f7373526f757465720000600082015250565b6000612313601e83612260565b915061231e826122dd565b602082019050919050565b6000602082019050818103600083015261234281612306565b9050919050565b7f6f6e6c7920737461726761746520726f757465722063616e2063616c6c20736760008201527f5265636569766521000000000000000000000000000000000000000000000000602082015250565b60006123a5602883612260565b91506123b082612349565b604082019050919050565b600060208201905081810360008301526123d481612398565b9050919050565b600080fd5b600080fd5b60005b838110156124035780820151818401526020810190506123e8565b83811115612412576000848401525b50505050565b600061242b61242684611ec4565b611ea9565b90508281526020810184848401111561244757612446611e33565b5b6124528482856123e5565b509392505050565b600082601f83011261246f5761246e611e2e565b5b815161247f848260208601612418565b91505092915050565b60008151905061249781611d48565b92915050565b60008115159050919050565b6124b28161249d565b81146124bd57600080fd5b50565b6000815190506124cf816124a9565b92915050565b6000606082840312156124eb576124ea6123db565b5b6124f56060611ea9565b9050600082015167ffffffffffffffff811115612515576125146123e0565b5b6125218482850161245a565b600083015250602061253584828501612488565b6020830152506040612549848285016124c0565b60408301525092915050565b60006020828403121561256b5761256a611c47565b5b600082015167ffffffffffffffff81111561258957612588611c4c565b5b612595848285016124d5565b91505092915050565b600081519050919050565b600082825260208201905092915050565b60006125c58261259e565b6125cf81856125a9565b93506125df8185602086016123e5565b6125e881611e38565b840191505092915050565b6125fc81611d0c565b82525050565b61260b81611cb8565b82525050565b600060a083016000830151848203600086015261262e82826125ba565b915050602083015161264360208601826125f3565b5060408301516126566040860182612602565b5060608301516126696060860182612602565b50608083015161267c6080860182612602565b508091505092915050565b600060208201905081810360008301526126a18184612611565b905092915050565b6000815190506126b881611f74565b92915050565b6000602082840312156126d4576126d3611c47565b5b60006126e2848285016126a9565b91505092915050565b600081519050919050565b600082825260208201905092915050565b6000819050602082019050919050565b600061272383836125f3565b60208301905092915050565b6000602082019050919050565b6000612747826126eb565b61275181856126f6565b935061275c83612707565b8060005b8381101561278d5781516127748882612717565b975061277f8361272f565b925050600181019050612760565b5085935050505092915050565b600060a0820190506127af6000830188611cc2565b6127bc6020830187611cc2565b81810360408301526127ce818661273c565b90506127dd6060830185611d1e565b6127ea6080830184611cc2565b9695505050505050565b600067ffffffffffffffff82111561280f5761280e611e49565b5b602082029050602081019050919050565b600061283361282e846127f4565b611ea9565b905080838252602082019050602084028301858111156128565761285561206a565b5b835b8181101561287f578061286b88826126a9565b845260208401935050602081019050612858565b5050509392505050565b600082601f83011261289e5761289d611e2e565b5b81516128ae848260208601612820565b91505092915050565b6000602082840312156128cd576128cc611c47565b5b600082015167ffffffffffffffff8111156128eb576128ea611c4c565b5b6128f784828501612889565b91505092915050565b7f756e737570706f7274656420636861696e000000000000000000000000000000600082015250565b6000612936601183612260565b915061294182612900565b602082019050919050565b6000602082019050818103600083015261296581612929565b9050919050565b60008160601b9050919050565b60006129848261296c565b9050919050565b600061299682612979565b9050919050565b6129ae6129a982611d0c565b61298b565b82525050565b60006129c0828461299d565b60148201915081905092915050565b6129d881611c51565b82525050565b6000819050919050565b600060ff82169050919050565b6000612a10612a0b612a06846129de565b611db4565b6129e8565b9050919050565b612a20816129f5565b82525050565b600082825260208201905092915050565b6000612a428261259e565b612a4c8185612a26565b9350612a5c8185602086016123e5565b612a6581611e38565b840191505092915050565b6000612a7c8385612a26565b9350612a89838584611ef5565b612a9283611e38565b840190509392505050565b6000606083016000830151612ab56000860182612602565b506020830151612ac86020860182612602565b5060408301518482036040860152612ae082826125ba565b9150508091505092915050565b600060a082019050612b0260008301896129cf565b612b0f6020830188612a17565b8181036040830152612b218187612a37565b90508181036060830152612b36818587612a70565b90508181036080830152612b4a8184612a9d565b9050979650505050505050565b60008060408385031215612b6e57612b6d611c47565b5b6000612b7c858286016126a9565b9250506020612b8d858286016126a9565b9150509250929050565b7f5265656e7472616e637947756172643a207265656e7472616e742063616c6c00600082015250565b6000612bcd601f83612260565b9150612bd882612b97565b602082019050919050565b60006020820190508181036000830152612bfc81612bc0565b9050919050565b7f21627269646765416d6f756e7400000000000000000000000000000000000000600082015250565b6000612c39600d83612260565b9150612c4482612c03565b602082019050919050565b60006020820190508181036000830152612c6881612c2c565b9050919050565b6000612c7a82611cec565b9050919050565b612c8a81612c6f565b8114612c9557600080fd5b50565b600081359050612ca781612c81565b92915050565b600060208284031215612cc357612cc2611c47565b5b6000612cd184828501612c98565b91505092915050565b7f746f5f5a45524f5f414444520000000000000000000000000000000000000000600082015250565b6000612d10600c83612260565b9150612d1b82612cda565b602082019050919050565b60006020820190508181036000830152612d3f81612d03565b9050919050565b612d4f81612c6f565b82525050565b600061012082019050612d6b600083018d6129cf565b612d78602083018c611cc2565b612d85604083018b611cc2565b612d92606083018a612d46565b612d9f6080830189611cc2565b612dac60a0830188611cc2565b81810360c0830152612dbe8187612a9d565b905081810360e0830152612dd28186612a37565b9050818103610100830152612de8818486612a70565b90509b9a5050505050505050505050565b7f4f776e61626c653a206e6577206f776e657220697320746865207a65726f206160008201527f6464726573730000000000000000000000000000000000000000000000000000602082015250565b6000612e55602683612260565b9150612e6082612df9565b604082019050919050565b60006020820190508181036000830152612e8481612e48565b9050919050565b6000604082019050612ea06000830185611d1e565b612ead6020830184611cc2565b9392505050565b600081905092915050565b6000612eca8261259e565b612ed48185612eb4565b9350612ee48185602086016123e5565b80840191505092915050565b6000612efc8284612ebf565b915081905092915050565b600060208284031215612f1d57612f1c611c47565b5b6000612f2b848285016124c0565b91505092915050565b7f5472616e7366657248656c7065723a3a73616665417070726f76653a2061707060008201527f726f7665206661696c6564000000000000000000000000000000000000000000602082015250565b6000612f90602b83612260565b9150612f9b82612f34565b604082019050919050565b60006020820190508181036000830152612fbf81612f83565b9050919050565b600060a08284031215612fdc57612fdb6123db565b5b612fe660a0611ea9565b9050600082015167ffffffffffffffff811115613006576130056123e0565b5b6130128482850161245a565b600083015250602061302684828501612488565b602083015250604061303a848285016126a9565b604083015250606061304e848285016126a9565b6060830152506080613062848285016126a9565b60808301525092915050565b60006020828403121561308457613083611c47565b5b600082015167ffffffffffffffff8111156130a2576130a1611c4c565b5b6130ae84828501612fc6565b91505092915050565b600067ffffffffffffffff8211156130d2576130d1611e49565b5b602082029050602081019050919050565b60006130f66130f1846130b7565b611ea9565b905080838252602082019050602084028301858111156131195761311861206a565b5b835b81811015613142578061312e8882612488565b84526020840193505060208101905061311b565b5050509392505050565b600082601f83011261316157613160611e2e565b5b81516131718482602086016130e3565b91505092915050565b60008151905061318981612c81565b92915050565b600080600080600060a086880312156131ab576131aa611c47565b5b60006131b9888289016126a9565b95505060206131ca888289016126a9565b945050604086015167ffffffffffffffff8111156131eb576131ea611c4c565b5b6131f78882890161314c565b93505060606132088882890161317a565b9250506080613219888289016126a9565b9150509295509295909350565b600081359050613235816124a9565b92915050565b60006020828403121561325157613250611c47565b5b600061325f84828501613226565b91505092915050565b7f746b696e206e6f206e6174697665577261700000000000000000000000000000600082015250565b600061329e601283612260565b91506132a982613268565b602082019050919050565b600060208201905081810360008301526132cd81613291565b9050919050565b7f696e7366636e7420616d74000000000000000000000000000000000000000000600082015250565b600061330a600b83612260565b9150613315826132d4565b602082019050919050565b60006020820190508181036000830152613339816132fd565b9050919050565b7f4e487b7100000000000000000000000000000000000000000000000000000000600052601160045260246000fd5b600061337a82611cb8565b915061338583611cb8565b92508282101561339857613397613340565b5b828203905092915050565b60006133ae82611cb8565b91506133b983611cb8565b9250827fffffffffffffffffffffffffffffffffffffffffffffffffffffffffffffffff038211156133ee576133ed613340565b5b828201905092915050565b600060408201905061340e6000830185611d1e565b61341b6020830184611d1e565b9392505050565b600061342d82611cb8565b915061343883611cb8565b9250817fffffffffffffffffffffffffffffffffffffffffffffffffffffffffffffffff048311821515161561347157613470613340565b5b828202905092915050565b7f4e487b7100000000000000000000000000000000000000000000000000000000600052601260045260246000fd5b60006134b682611cb8565b91506134c183611cb8565b9250826134d1576134d061347c565b5b828204905092915050565b60006060820190506134f16000830186611d1e565b6134fe6020830185611d1e565b61350b6040830184611cc2565b949350505050565b7f5361666545524332303a204552433230206f7065726174696f6e20646964206e60008201527f6f74207375636365656400000000000000000000000000000000000000000000602082015250565b600061356f602a83612260565b915061357a82613513565b604082019050919050565b6000602082019050818103600083015261359e81613562565b9050919050565b7f416464726573733a20696e73756666696369656e742062616c616e636520666f60008201527f722063616c6c0000000000000000000000000000000000000000000000000000602082015250565b6000613601602683612260565b915061360c826135a5565b604082019050919050565b60006020820190508181036000830152613630816135f4565b9050919050565b7f416464726573733a2063616c6c20746f206e6f6e2d636f6e7472616374000000600082015250565b600061366d601d83612260565b915061367882613637565b602082019050919050565b6000602082019050818103600083015261369c81613660565b9050919050565b600081519050919050565b60006136b9826136a3565b6136c38185612260565b93506136d38185602086016123e5565b6136dc81611e38565b840191505092915050565b6000602082019050818103600083015261370181846136ae565b90509291505056fea26469706673582212200374a5d269ec01ca4bad4c5fbe227d6f26879b5b782ebc1fec207f0f0a66358964736f6c634300080c0033",
  "linkReferences": {},
  "deployedLinkReferences": {}
}